{
  "_format": "hh-sol-artifact-1",
  "contractName": "AxiomBridgeV2",
  "sourceName": "contracts/AxiomBridgeV2.sol",
  "abi": [
    {
      "anonymous": false,
      "inputs": [
        {
          "indexed": false,
          "internalType": "uint8",
          "name": "version",
          "type": "uint8"
        }
      ],
      "name": "Initialized",
      "type": "event"
    },
    {
      "anonymous": false,
      "inputs": [
        {
          "indexed": false,
          "internalType": "uint256",
          "name": "assetId",
          "type": "uint256"
        },
        {
          "indexed": false,
          "internalType": "address",
          "name": "tokenAddr",
          "type": "address"
        },
        {
          "indexed": false,
          "internalType": "uint256",
          "name": "minTransferAmount",
          "type": "uint256"
        }
      ],
      "name": "LogAssetRegistered",
      "type": "event"
    },
    {
      "anonymous": false,
      "inputs": [
        {
          "indexed": false,
          "internalType": "uint16",
          "name": "channel",
          "type": "uint16"
        },
        {
          "indexed": false,
          "internalType": "address",
          "name": "committer",
          "type": "address"
        }
      ],
      "name": "LogChannelRegistered",
      "type": "event"
    },
    {
      "anonymous": false,
      "inputs": [
        {
          "indexed": false,
          "internalType": "uint16",
          "name": "channel",
          "type": "uint16"
        },
        {
          "indexed": false,
          "internalType": "address",
          "name": "committer",
          "type": "address"
        }
      ],
      "name": "LogChannelUpdated",
      "type": "event"
    },
    {
      "anonymous": false,
      "inputs": [
        {
          "indexed": false,
          "internalType": "uint16",
          "name": "channel",
          "type": "uint16"
        },
        {
          "indexed": false,
          "internalType": "uint64",
          "name": "begin",
          "type": "uint64"
        },
        {
          "indexed": false,
          "internalType": "uint64",
          "name": "end",
          "type": "uint64"
        },
        {
          "indexed": false,
          "internalType": "uint256",
          "name": "endHeight",
          "type": "uint256"
        }
      ],
      "name": "LogTransferFinalized",
      "type": "event"
    },
    {
      "anonymous": false,
      "inputs": [
        {
          "indexed": false,
          "internalType": "uint256",
          "name": "assetId",
          "type": "uint256"
        },
        {
          "indexed": false,
          "internalType": "address",
          "name": "receiver",
          "type": "address"
        },
        {
          "indexed": false,
          "internalType": "uint256",
          "name": "bridgeFee",
          "type": "uint256"
        },
        {
          "indexed": false,
          "internalType": "uint256",
          "name": "remainFee",
          "type": "uint256"
        }
      ],
      "name": "LogTransferFinalizedData",
      "type": "event"
    },
    {
      "anonymous": false,
      "inputs": [
        {
          "indexed": false,
          "internalType": "uint256",
          "name": "assetId",
          "type": "uint256"
        },
        {
          "indexed": false,
          "internalType": "address",
          "name": "sender",
          "type": "address"
        },
        {
          "indexed": false,
          "internalType": "address",
          "name": "to",
          "type": "address"
        },
        {
          "indexed": false,
          "internalType": "uint256",
          "name": "amount",
          "type": "uint256"
        },
        {
          "indexed": false,
          "internalType": "uint16",
          "name": "channel",
          "type": "uint16"
        },
        {
          "indexed": false,
          "internalType": "uint64",
          "name": "nonce",
          "type": "uint64"
        },
        {
          "indexed": false,
          "internalType": "uint256",
          "name": "dstChainId",
          "type": "uint256"
        }
      ],
      "name": "LogTransferInitiated",
      "type": "event"
    },
    {
      "anonymous": false,
      "inputs": [
        {
          "indexed": false,
          "internalType": "uint256",
          "name": "assetId",
          "type": "uint256"
        },
        {
          "indexed": false,
          "internalType": "address",
          "name": "to",
          "type": "address"
        },
        {
          "indexed": false,
          "internalType": "uint256",
          "name": "amount",
          "type": "uint256"
        }
      ],
      "name": "LogWithdrawal",
      "type": "event"
    },
    {
      "anonymous": false,
      "inputs": [
        {
          "indexed": false,
          "internalType": "uint256",
          "name": "assetId",
          "type": "uint256"
        },
        {
          "indexed": false,
          "internalType": "address",
          "name": "to",
          "type": "address"
        },
        {
          "indexed": false,
          "internalType": "uint256",
          "name": "amount",
          "type": "uint256"
        }
      ],
      "name": "LogWithdrawalWtoken",
      "type": "event"
    },
    {
      "anonymous": false,
      "inputs": [
        {
          "indexed": true,
          "internalType": "address",
          "name": "previousOwner",
          "type": "address"
        },
        {
          "indexed": true,
          "internalType": "address",
          "name": "newOwner",
          "type": "address"
        }
      ],
      "name": "OwnershipTransferred",
      "type": "event"
    },
    {
      "anonymous": false,
      "inputs": [
        {
          "indexed": false,
          "internalType": "address",
          "name": "account",
          "type": "address"
        }
      ],
      "name": "Paused",
      "type": "event"
    },
    {
      "anonymous": false,
      "inputs": [
        {
          "indexed": false,
          "internalType": "address",
          "name": "account",
          "type": "address"
        }
      ],
      "name": "Unpaused",
      "type": "event"
    },
    {
      "inputs": [
        {
          "components": [
            {
              "internalType": "uint256",
              "name": "assetId",
              "type": "uint256"
            },
            {
              "internalType": "uint256",
              "name": "amount",
              "type": "uint256"
            },
            {
              "internalType": "address",
              "name": "receipt",
              "type": "address"
            }
          ],
          "internalType": "struct BridgeStorage.TransferItem[]",
          "name": "transferData",
          "type": "tuple[]"
        },
        {
          "components": [
            {
              "internalType": "uint256",
              "name": "assetId",
              "type": "uint256"
            },
            {
              "internalType": "uint256",
              "name": "amount",
              "type": "uint256"
            }
          ],
          "internalType": "struct BridgeStorage.CommissionItem[]",
          "name": "commissionData",
          "type": "tuple[]"
        },
        {
          "internalType": "uint16",
          "name": "channel",
          "type": "uint16"
        },
        {
          "internalType": "uint64",
          "name": "begin",
          "type": "uint64"
        },
        {
          "internalType": "uint64",
          "name": "end",
          "type": "uint64"
        },
        {
          "internalType": "uint256",
          "name": "endHeight",
          "type": "uint256"
        },
        {
          "internalType": "uint64",
          "name": "gasEstimate",
          "type": "uint64"
        }
      ],
      "name": "batchFinalizeTransfer",
      "outputs": [],
      "stateMutability": "nonpayable",
      "type": "function"
    },
    {
      "inputs": [
        {
          "internalType": "address",
          "name": "recipient",
          "type": "address"
        },
        {
          "internalType": "uint16",
          "name": "channel",
          "type": "uint16"
        }
      ],
      "name": "depositNativeTokenTo",
      "outputs": [],
      "stateMutability": "payable",
      "type": "function"
    },
    {
      "inputs": [
        {
          "internalType": "uint256",
          "name": "assetId",
          "type": "uint256"
        },
        {
          "internalType": "uint256",
          "name": "amount",
          "type": "uint256"
        },
        {
          "internalType": "address",
          "name": "recipient",
          "type": "address"
        },
        {
          "internalType": "uint16",
          "name": "channel",
          "type": "uint16"
        }
      ],
      "name": "despositErc20To",
      "outputs": [],
      "stateMutability": "nonpayable",
      "type": "function"
    },
    {
      "inputs": [
        {
          "internalType": "uint256",
          "name": "assetId",
          "type": "uint256"
        }
      ],
      "name": "getAssetAddr",
      "outputs": [
        {
          "internalType": "address",
          "name": "",
          "type": "address"
        }
      ],
      "stateMutability": "view",
      "type": "function"
    },
    {
      "inputs": [
        {
          "internalType": "uint256",
          "name": "assetId",
          "type": "uint256"
        }
      ],
      "name": "getAssetMinAmount",
      "outputs": [
        {
          "internalType": "uint256",
          "name": "",
          "type": "uint256"
        }
      ],
      "stateMutability": "view",
      "type": "function"
    },
    {
      "inputs": [],
      "name": "getBridgeFeeRequired",
      "outputs": [
        {
          "internalType": "bool",
          "name": "",
          "type": "bool"
        }
      ],
      "stateMutability": "view",
      "type": "function"
    },
    {
      "inputs": [
        {
          "internalType": "uint256",
          "name": "assetId",
          "type": "uint256"
        }
      ],
      "name": "getBridgeProfit",
      "outputs": [
        {
          "internalType": "uint256",
          "name": "",
          "type": "uint256"
        }
      ],
      "stateMutability": "view",
      "type": "function"
    },
    {
      "inputs": [],
      "name": "getChannels",
      "outputs": [
        {
          "internalType": "uint16[]",
          "name": "",
          "type": "uint16[]"
        }
      ],
      "stateMutability": "view",
      "type": "function"
    },
    {
      "inputs": [],
      "name": "getDeterminedHeight",
      "outputs": [
        {
          "internalType": "uint256",
          "name": "",
          "type": "uint256"
        }
      ],
      "stateMutability": "view",
      "type": "function"
    },
    {
      "inputs": [],
      "name": "getDstChainId",
      "outputs": [
        {
          "internalType": "uint256",
          "name": "",
          "type": "uint256"
        }
      ],
      "stateMutability": "view",
      "type": "function"
    },
    {
      "inputs": [
        {
          "internalType": "uint16",
          "name": "channel",
          "type": "uint16"
        }
      ],
      "name": "getInNonce",
      "outputs": [
        {
          "internalType": "uint64",
          "name": "",
          "type": "uint64"
        }
      ],
      "stateMutability": "view",
      "type": "function"
    },
    {
      "inputs": [
        {
          "internalType": "uint16",
          "name": "channel",
          "type": "uint16"
        }
      ],
      "name": "getOutNonce",
      "outputs": [
        {
          "internalType": "uint64",
          "name": "",
          "type": "uint64"
        }
      ],
      "stateMutability": "view",
      "type": "function"
    },
    {
      "inputs": [],
      "name": "getPriceConsumer",
      "outputs": [
        {
          "internalType": "address",
          "name": "",
          "type": "address"
        }
      ],
      "stateMutability": "view",
      "type": "function"
    },
    {
      "inputs": [],
      "name": "getRegisterAssets",
      "outputs": [
        {
          "internalType": "uint256[]",
          "name": "",
          "type": "uint256[]"
        }
      ],
      "stateMutability": "view",
      "type": "function"
    },
    {
      "inputs": [],
      "name": "getTreasury",
      "outputs": [
        {
          "internalType": "address",
          "name": "",
          "type": "address"
        }
      ],
      "stateMutability": "view",
      "type": "function"
    },
    {
      "inputs": [
        {
          "internalType": "uint256",
          "name": "assetId",
          "type": "uint256"
        }
      ],
      "name": "getWithdrawAmount",
      "outputs": [
        {
          "internalType": "uint256",
          "name": "",
          "type": "uint256"
        }
      ],
      "stateMutability": "view",
      "type": "function"
    },
    {
      "inputs": [
        {
          "internalType": "address payable",
          "name": "_treasuryAddr",
          "type": "address"
        },
        {
          "internalType": "bool",
          "name": "_bridgeFeeRequired",
          "type": "bool"
        },
        {
          "internalType": "uint256",
          "name": "_dstChainId",
          "type": "uint256"
        }
      ],
      "name": "initialize",
      "outputs": [],
      "stateMutability": "nonpayable",
      "type": "function"
    },
    {
      "inputs": [
        {
          "internalType": "uint256",
          "name": "assetId",
          "type": "uint256"
        }
      ],
      "name": "isAssetRegistered",
      "outputs": [
        {
          "internalType": "bool",
          "name": "",
          "type": "bool"
        }
      ],
      "stateMutability": "view",
      "type": "function"
    },
    {
      "inputs": [],
      "name": "isBridgeFeeRequired",
      "outputs": [
        {
          "internalType": "bool",
          "name": "",
          "type": "bool"
        }
      ],
      "stateMutability": "view",
      "type": "function"
    },
    {
      "inputs": [
        {
          "internalType": "uint16",
          "name": "_channelId",
          "type": "uint16"
        }
      ],
      "name": "isChannelRegistered",
      "outputs": [
        {
          "internalType": "bool",
          "name": "",
          "type": "bool"
        }
      ],
      "stateMutability": "view",
      "type": "function"
    },
    {
      "inputs": [],
      "name": "owner",
      "outputs": [
        {
          "internalType": "address",
          "name": "",
          "type": "address"
        }
      ],
      "stateMutability": "view",
      "type": "function"
    },
    {
      "inputs": [],
      "name": "pause",
      "outputs": [],
      "stateMutability": "nonpayable",
      "type": "function"
    },
    {
      "inputs": [],
      "name": "paused",
      "outputs": [
        {
          "internalType": "bool",
          "name": "",
          "type": "bool"
        }
      ],
      "stateMutability": "view",
      "type": "function"
    },
    {
      "inputs": [
        {
          "internalType": "uint16",
          "name": "_channel",
          "type": "uint16"
        },
        {
          "internalType": "address",
          "name": "_committer",
          "type": "address"
        }
      ],
      "name": "registerChannel",
      "outputs": [],
      "stateMutability": "nonpayable",
      "type": "function"
    },
    {
      "inputs": [
        {
          "internalType": "uint256",
          "name": "assetId",
          "type": "uint256"
        },
        {
          "internalType": "address",
          "name": "tokenAddr",
          "type": "address"
        },
        {
          "internalType": "uint256",
          "name": "minTransferAmount",
          "type": "uint256"
        }
      ],
      "name": "registerToken",
      "outputs": [],
      "stateMutability": "nonpayable",
      "type": "function"
    },
    {
      "inputs": [],
      "name": "renounceOwnership",
      "outputs": [],
      "stateMutability": "nonpayable",
      "type": "function"
    },
    {
      "inputs": [
        {
          "internalType": "uint16",
          "name": "_channel",
          "type": "uint16"
        },
        {
          "internalType": "address",
          "name": "_committer",
          "type": "address"
        }
      ],
      "name": "setChannelComitter",
      "outputs": [],
      "stateMutability": "nonpayable",
      "type": "function"
    },
    {
      "inputs": [
        {
          "internalType": "address",
          "name": "_priceConsumer",
          "type": "address"
        }
      ],
      "name": "setPriceConsumer",
      "outputs": [],
      "stateMutability": "nonpayable",
      "type": "function"
    },
    {
      "inputs": [],
      "name": "testProxyUpgrade",
      "outputs": [
        {
          "internalType": "string",
          "name": "",
          "type": "string"
        }
      ],
      "stateMutability": "pure",
      "type": "function"
    },
    {
      "inputs": [
        {
          "internalType": "address",
          "name": "newOwner",
          "type": "address"
        }
      ],
      "name": "transferOwnership",
      "outputs": [],
      "stateMutability": "nonpayable",
      "type": "function"
    },
    {
      "inputs": [],
      "name": "unpause",
      "outputs": [],
      "stateMutability": "nonpayable",
      "type": "function"
    },
    {
      "inputs": [
        {
          "internalType": "uint256",
          "name": "assetId",
          "type": "uint256"
        }
      ],
      "name": "withdraw",
      "outputs": [],
      "stateMutability": "nonpayable",
      "type": "function"
    },
    {
      "inputs": [
        {
          "internalType": "uint256",
          "name": "assetId",
          "type": "uint256"
        }
      ],
      "name": "withdrawPengdingWtoken",
      "outputs": [],
      "stateMutability": "nonpayable",
      "type": "function"
    },
    {
      "inputs": [
        {
          "internalType": "uint256",
          "name": "assetId",
          "type": "uint256"
        },
        {
          "internalType": "uint256",
          "name": "amount",
          "type": "uint256"
        },
        {
          "internalType": "address",
          "name": "recipient",
          "type": "address"
        },
        {
          "internalType": "uint16",
          "name": "channel",
          "type": "uint16"
        }
      ],
      "name": "withdrawalWTokenTo",
      "outputs": [],
      "stateMutability": "nonpayable",
      "type": "function"
    }
  ],
  "bytecode": "0x6080806040523461001657612ff6908161001c8239f35b600080fdfe60806040526004361015610013575b600080fd5b60003560e01c8063049f5ade146102b2578063073d96e41461027c5780632035cfa5146102a957806321ef6541146102a057806326a823c9146102975780632bdff8be1461028e5780632e1a7d4d14610285578063390919411461027c5780633b19e84a146102735780633ed2c35b1461026a5780633f4ba83a146102615780634bcb5916146102585780635c975abb1461024f578063715018a6146102465780637430a0a51461023d5780638456cb591461023457806386e76f731461022b57806389f03b58146102225780638da5cb5b146102195780638ed122fd14610210578063947fe20a146102075780639575f6ac146101fe578063a8d9bcef146101f5578063b21d0c4b146101ec578063b51b8ce4146101e3578063bbcccaa1146101da578063c4a512b1146101d1578063ce26e9ef146101c8578063e14f2678146101bf578063e37ff29f146101b6578063e445dc43146101ad578063e71be603146101a4578063f2fde38b1461019b5763fe442f411461019357600080fd5b61000e611973565b5061000e6118e1565b5061000e6118a2565b5061000e611855565b5061000e611755565b5061000e611649565b5061000e6114a7565b5061000e611476565b5061000e61142f565b5061000e611300565b5061000e6112c1565b5061000e61126f565b5061000e610e92565b5061000e610d64565b5061000e610c34565b5061000e610c0a565b5061000e610b2d565b5061000e610ab3565b5061000e610a58565b5061000e610a39565b5061000e6109d7565b5061000e6109b3565b5061000e6108a8565b5061000e610813565b5061000e6107d8565b5061000e6107ae565b5061000e6102ef565b5061000e6106b3565b5061000e6105ac565b5061000e6103f6565b5061000e61033d565b5061000e610316565b503461000e57602036600319011261000e57600435600052606a602052602060ff604060002054166040519015158152f35b600091031261000e57565b503461000e57600036600319011261000e57602060ff60675460a01c166040519015158152f35b503461000e57602036600319011261000e576020610335600435611b2d565b604051908152f35b503461000e576000806003193601126103f35760405180916069549081835260208093018092606983527f7fb4302e8e91f9110a6554c2c0a24601252c2a42c2220ca988efcfe39991430890835b8181106103df57505050846103a191038561153e565b60405193838594850191818652518092526040850193925b8281106103c857505050500390f35b8351855286955093810193928101926001016103b9565b82548452928601926001928301920161038b565b80fd5b503461000e57602036600319011261000e57600435610413611de4565b61043961043461042d83600052606a602052604060002090565b5460ff1690565b612c08565b61046361045082600052606e602052604060002090565b3360009081526020919091526040902090565b5490610470821515612c54565b600091826104a33361048c85600052606e602052604060002090565b9060018060a01b0316600052602052604060002090565b556104bf6104b36104b384611af8565b6001600160a01b031690565b91823b15610564576040516340c10f1960e01b8152336004820152602481018390527f757e798a5de94b9d773c8f877d076c1ee064dbbb9ef619afc7ccd829afbeed9a9385908290604490829084905af18015610557575b61053e575b506040805191825233602083015281019190915280606081015b0390a1604051f35b8061054b610551926114e8565b806102e4565b3861051c565b61055f611fb4565b610517565b8380fd5b6001600160a01b0381160361000e57565b6024359061ffff8216820361000e57565b6004359061ffff8216820361000e57565b6044359061ffff8216820361000e57565b50604036600319011261000e576004356105c581610568565b6105cd610579565b6105d5611de4565b61ffff811660005260706020526105f360ff60406000205416611cc9565b3415610648576106469146600052606a60205261061e610619604060002060ff90541690565b611d15565b61062746611af8565b9061063c61063446611b2d565b341015611d72565b3491339046611fc1565b005b60405162461bcd60e51b815260206004820152603860248201527f4178696f6d4272696467653a20546869732066756e6374696f6e2063616c6c2060448201527f6d757374206361727279206e617469766520746f6b656e7300000000000000006064820152608490fd5b503461000e57602036600319011261000e576004356106d0611de4565b7ff14cd1bb289d45f28f1d192add66893331fa3b3fa7a2a9dd1cc7e076dd817e19600091808352606a60205261070c60ff604085205416612c08565b61072361045082600052606d602052604060002090565b5490610730821515612c54565b836107493361048c84600052606d602052604060002090565b5546810361079357610776848061075e612c99565b60208151910186335af1610770612cd1565b50612d1e565b604080519182523360208301528101919091528060608101610536565b6107a982336107a46104b385611af8565b612d83565b610776565b503461000e57600036600319011261000e576067546040516001600160a01b039091168152602090f35b503461000e57602036600319011261000e5761ffff6107f561058a565b166000526070602052602060ff604060002054166040519015158152f35b503461000e57600036600319011261000e5761082d611992565b60745460ff81161561086c5760ff19166074557f5db9ee0a495bf2e6ff9c91a7834c1ba4fdd244a5e8aa4e537bd38aeae4b073aa6020604051338152a1005b60405162461bcd60e51b815260206004820152601460248201527314185d5cd8589b194e881b9bdd081c185d5cd95960621b6044820152606490fd5b503461000e57604036600319011261000e576108c261058a565b6024356108ce81610568565b6108d6611992565b61ffff8216600052607060205260ff6040600020541615610975578161094e8261092f7f54940aedfbdfe2b0bb8367a7c16ee6079cab56deb56b6686cca50520bf6beebc9561ffff166000526071602052604060002090565b80546001600160a01b0319166001600160a01b03909216919091179055565b6040805161ffff90921682526001600160a01b03909216602082015290819081015b0390a1005b60405162461bcd60e51b815260206004820152601660248201527510d2105393915317d393d517d49151d254d51154915160521b6044820152606490fd5b503461000e57600036600319011261000e57602060ff607454166040519015158152f35b503461000e576000806003193601126103f3576109f2611992565b603380546001600160a01b031981169091556040519082906001600160a01b03167f8be0079c531659141344cd1fd0a4f28419497f9722a3daafe3b4186f6b6457e08284a3f35b503461000e57600036600319011261000e576020606554604051908152f35b503461000e57600036600319011261000e57610a72611992565b610a7a611de4565b600160ff1960745416176074557f62e78cea01bee320cd4e420270b5ea74000d11b0c9f74754ebdbfc544b05a2586020604051338152a1005b503461000e57602036600319011261000e57600435610ad181610568565b610ad9611992565b606680546001600160a01b0319166001600160a01b0392909216919091179055005b608090600319011261000e576004359060243590604435610b1b81610568565b9060643561ffff8116810361000e5790565b503461000e57610b3c36610afb565b9190610b46611de4565b61ffff83166000526070602052610b6460ff60406000205416611cc9565b83600052606a602052610b7e60ff60406000205416611d15565b610b8784611af8565b93610b9c610b9482611b2d565b841015611d72565b610ba585611e28565b15610bb557610646943391611fc1565b60405162461bcd60e51b815260206004820152602760248201527f4178696f6d4272696467653a206f6e6c792077546f6b656e2063616e207769746044820152661a191c985dd85b60ca1b6064820152608490fd5b503461000e57600036600319011261000e576033546040516001600160a01b039091168152602090f35b503461000e57606036600319011261000e57600435602435610c5581610568565b60443591610c61611992565b80600052606a60205260ff60406000205416610d1f576109707ffab9ac55741072b33a7743a03cd14e80cfb39d22f2c2ca3b558bb6ff4f4924a193610cc0610cb384600052606a602052604060002090565b805460ff19166001179055565b610cd88461092f85600052606b602052604060002090565b80610ced84600052606c602052604060002090565b55610cf783611a51565b604080519384526001600160a01b039094166020840152928201929092529081906060820190565b60405162461bcd60e51b815260206004820152601860248201527f41535345545f414c52454144595f5245474953544552454400000000000000006044820152606490fd5b503461000e57604036600319011261000e57610d7e61058a565b602435610d8a81610568565b610d92611992565b61ffff8216600052607060205260ff60406000205416610e0e5781610de9610cb37f523517aa3037d5f5f84f0a660056a28362329b0fbbaa832529e8167794c059a19461ffff166000526070602052604060002090565b610e058261092f8361ffff166000526071602052604060002090565b61094e81612f39565b60405162461bcd60e51b815260206004820152601a60248201527f4348414e4e454c5f414c52454144595f524547495354455245440000000000006044820152606490fd5b6020908160408183019282815285518094520193019160005b828110610e7a575050505090565b835161ffff1685529381019392810192600101610e6c565b503461000e57600036600319011261000e5760408051606f548082529160208201606f600052927f39f2babe526038520877fc7c33d81accf578af4a06c5fa6b0d038cae36e12711906000915b81600f8401106111085794610f7c928592610f869754918181106110f3575b8181106110da575b8181106110c2575b8181106110a9575b818110611092575b818110611079575b818110611060575b818110611047575b81811061102e575b818110611015575b818110610ffc575b818110610fe3575b818110610fca575b818110610fb1575b818110610f98575b10610f8a575b50038361153e565b5191829182610e53565b0390f35b60f01c815260200138610f74565b60e083901c61ffff168452926001906020019301610f6e565b60d083901c61ffff168452926001906020019301610f66565b60c083901c61ffff168452926001906020019301610f5e565b60b083901c61ffff168452926001906020019301610f56565b60a083901c61ffff168452926001906020019301610f4e565b609083901c61ffff168452926001906020019301610f46565b608083901c61ffff168452926001906020019301610f3e565b607083901c61ffff168452926001906020019301610f36565b606083901c61ffff168452926001906020019301610f2e565b605083901c61ffff168452926001906020019301610f26565b82871c61ffff168452926001906020019301610f1e565b603083901c61ffff168452926001906020019301610f16565b602083811c61ffff1685529093600191019301610f0e565b601083901c61ffff168452926001906020019301610f06565b61ffff83168452926001906020019301610efe565b94600161020060109261126489546112598361ffff61112c8282861661ffff169052565b6111568c82866020926111498488018f8486911c1661ffff169052565b8601921c1661ffff169052565b6112328c61120a606091611174838701868a60301c1661ffff169052565b61118a608091868a848a01921c1661ffff169052565b6111e260a0916111a4838901888c60501c1661ffff169052565b6111ba60c095888c888c01921c1661ffff169052565b868a61010060e09a6111d68c8201858560701c1661ffff169052565b01921c1661ffff169052565b6111f86101208b01868a60901c1661ffff169052565b84886101408c01921c1661ffff169052565b6112206101608901848860b01c1661ffff169052565b82866101808a01921c1661ffff169052565b6112486101a08701828660d01c1661ffff169052565b836101c08701921c1661ffff169052565b60f01c6101e0830152565b019601920191610edf565b503461000e57602036600319011261000e5760043580600052606a60205261129e60ff60406000205416612c08565b6000908152606e6020908152604080832033845282529091205b54604051908152f35b503461000e57602036600319011261000e5761ffff6112de61058a565b16600052607360205260206001600160401b0360406000205416604051908152f35b503461000e5761130f36610afb565b9190611319611de4565b61ffff8316600052607060205261133760ff60406000205416611cc9565b83600052606a60205261135160ff60406000205416611d15565b61135a84611af8565b93611367610b9482611b2d565b61137085611e28565b61137f57610646943391611fc1565b60405162461bcd60e51b815260206004820152602b60248201527f4178696f6d4272696467653a206f6e6c79206e6f726d616c20546f6b656e206360448201526a30b7103a3930b739b332b960a91b6064820152608490fd5b919091602080825283519081818401526000945b82861061141957505080604093941161140c575b601f01601f1916010190565b6000838284010152611400565b85810182015184870160400152948101946113ec565b503461000e57600036600319011261000e57610f8660405161145081611508565b600d81526c20bc34b7b6a13934b233b2ab1960991b6020820152604051918291826113d8565b503461000e57602036600319011261000e576020611495600435611af8565b6040516001600160a01b039091168152f35b503461000e57600036600319011261000e576066546040516001600160a01b039091168152602090f35b50634e487b7160e01b600052604160045260246000fd5b6001600160401b0381116114fb57604052565b6115036114d1565b604052565b604081019081106001600160401b038211176114fb57604052565b606081019081106001600160401b038211176114fb57604052565b90601f801991011681019081106001600160401b038211176114fb57604052565b6020906001600160401b038111611578575b60051b0190565b6115806114d1565b611571565b81601f8201121561000e5780359061159c8261155f565b926040926115ac8451958661153e565b808552602091828087019260061b8501019381851161000e578301915b8483106115d95750505050505090565b858383031261000e5783869182516115f081611508565b8535815282860135838201528152019201916115c9565b606435906001600160401b038216820361000e57565b608435906001600160401b038216820361000e57565b60c435906001600160401b038216820361000e57565b503461000e5760e036600319011261000e576001600160401b0360043581811161000e573660238201121561000e578060040135916116878361155f565b926040926116978451958661153e565b8185526020808601602460608095028401019236841161000e57602401905b83821061170c57878760243588811161000e576000926116dd611709923690600401611585565b906116e661059b565b6116ee611607565b6116f661161d565b916116ff611633565b9460a435946121d8565b51f35b848236031261000e57828591885161172381611523565b8435815282850135838201528985013561173c81610568565b8a8201528152019101906116b6565b8015150361000e57565b503461000e57606036600319011261000e5760043561177381610568565b6117c9602435916117838361174b565b600054926117a860ff8560081c161580958196611847575b8115611827575b50611b58565b836117bb600160ff196000541617600055565b61180e575b60443591611bbb565b6117cf57005b6117df61ff001960005416600055565b604051600181527f7f26b83ff96e1f2b6a682f133852f6798a09c465da95921460cefb384740249890602090a1005b61182261010061ff00196000541617600055565b6117c0565b303b15915081611839575b50386117a2565b6001915060ff161438611832565b600160ff821610915061179b565b503461000e57602036600319011261000e5760043580600052606a60205261188460ff60406000205416612c08565b6000908152606d6020908152604080832033845282529091206112b8565b503461000e57602036600319011261000e5761ffff6118bf61058a565b16600052607260205260206001600160401b0360406000205416604051908152f35b503461000e57602036600319011261000e576004356118ff81610568565b611907611992565b6001600160a01b0381161561191f57610646906119ea565b60405162461bcd60e51b815260206004820152602660248201527f4f776e61626c653a206e6577206f776e657220697320746865207a65726f206160448201526564647265737360d01b6064820152608490fd5b503461000e57600036600319011261000e576020606854604051908152f35b6033546001600160a01b031633036119a657565b606460405162461bcd60e51b815260206004820152602060248201527f4f776e61626c653a2063616c6c6572206973206e6f7420746865206f776e65726044820152fd5b6033549060018060a01b0380911691826bffffffffffffffffffffffff60a01b821617603355167f8be0079c531659141344cd1fd0a4f28419497f9722a3daafe3b4186f6b6457e06000604051a3565b50634e487b7160e01b600052603260045260246000fd5b606954600160401b811015611aa8575b6001810180606955811015611a9b575b60696000527f7fb4302e8e91f9110a6554c2c0a24601252c2a42c2220ca988efcfe3999143080155565b611aa3611a3a565b611a71565b611ab06114d1565b611a61565b15611abc57565b60405162461bcd60e51b81526020600482015260146024820152731054d4d15517d393d517d49151d254d51154915160621b6044820152606490fd5b80600052606a602052611b1260ff60406000205416611ab5565b6000908152606b60205260409020546001600160a01b031690565b80600052606a602052611b4760ff60406000205416611ab5565b600052606c60205260406000205490565b15611b5f57565b60405162461bcd60e51b815260206004820152602e60248201527f496e697469616c697a61626c653a20636f6e747261637420697320616c72656160448201526d191e481a5b9a5d1a585b1a5e995960921b6064820152608490fd5b6001600160a01b03168015611c18576067549160ff60a01b90151560a01b16916affffffffffffffffffffff60a81b161717606755606855611c0d60ff60005460081c16611c0881611c69565b611c69565b611c16336119ea565b565b60405162461bcd60e51b815260206004820152602360248201527f4178696f6d4272696467653a2074726561737572792063616e6e6f742062652060448201526203078360ec1b6064820152608490fd5b15611c7057565b60405162461bcd60e51b815260206004820152602b60248201527f496e697469616c697a61626c653a20636f6e7472616374206973206e6f74206960448201526a6e697469616c697a696e6760a81b6064820152608490fd5b15611cd057565b60405162461bcd60e51b815260206004820152601a60248201527f6368616e6e656c206d75737420626520726567697374657265640000000000006044820152606490fd5b15611d1c57565b60405162461bcd60e51b815260206004820152602860248201527f4178696f6d4272696467653a2054686520746f6b656e206973206e6f7420726560448201526719da5cdd195c995960c21b6064820152608490fd5b15611d7957565b60405162461bcd60e51b815260206004820152603960248201527f4178696f6d4272696467653a207472616e7366657220616d6f756e74206d757360448201527f742067726561746572207468616e206d696e20616d6f756e74000000000000006064820152608490fd5b60ff60745416611df057565b60405162461bcd60e51b815260206004820152601060248201526f14185d5cd8589b194e881c185d5cd95960821b6044820152606490fd5b6040519060208083018160006301ffc9a760e01b9586845286602482015260248152611e5381611523565b51617530938685fa933d6000519086611efb575b5085611ef1575b5084611e8e575b50505081611e81575090565b611e8b9150611f06565b90565b83945090600091839460405185810192835263ffffffff60e01b602482015260248152611eba81611523565b5192fa60005190913d83611ee6575b505081611edc575b501590388080611e75565b9050151538611ed1565b101591503880611ec9565b1515945038611e6e565b841115955038611e67565b6000602091604051838101906301ffc9a760e01b825263ec4fc8e360e01b602482015260248152611f3681611523565b5191617530fa6000513d82611f57575b5081611f50575090565b9050151590565b60201115915038611f46565b50634e487b7160e01b600052601160045260246000fd5b6001906001600160401b03809116908114611f93570190565b611f9b611f63565b0190565b9081602091031261000e5751611e8b8161174b565b506040513d6000823e3d90fd5b929094919394611fdf8361ffff166000526073602052604060002090565b90612019611ffc611ff784546001600160401b031690565b611f7a565b835467ffffffffffffffff19166001600160401b03821617909355565b61202281611e28565b15612117576001600160a01b031692833b1561000e57604051632770a7eb60e21b81526001600160a01b0387166004820152602481018890527f8f3038e873f3f12f9a6253b257d72e1ebb68474437125a89fdb3d9a5844dbb47976120f2959091906000908290604490829084905af1801561210a575b6120f7575b505b6068549360405197889788939460c09561ffff92999897936001600160401b039560e088019b885260018060a01b03809216602089015216604087015260608601521660808401521660a08201520152565b0390a1565b8061054b612104926114e8565b3861209e565b612112611fb4565b612099565b92867f8f3038e873f3f12f9a6253b257d72e1ebb68474437125a89fdb3d9a5844dbb47976120f29546880361214e575b50506120a0565b6040516323b872dd60e01b81526001600160a01b038a8116600483015230602483015260448201939093529160209183916064918391600091165af180156121cb575b61219d575b8190612147565b6121bd9060203d81116121c4575b6121b5818361153e565b810190611f9f565b5038612196565b503d6121ab565b6121d3611fb4565b612191565b9594939291906121e6611de4565b61ffff8216600052607060205260ff6040600020541680612263575b1561221057611c1696612571565b60405162461bcd60e51b815260206004820152602560248201527f6f6e6c792063616e2062652063616c6c206279206368616e6e656c20636f6d6960448201526403a3a32b9160dd1b6064820152608490fd5b5060716020526040600020546001600160a01b03163314612202565b6001600160401b036001911667fffffffffffffffe8111611f93570190565b156122a557565b60405162461bcd60e51b815260206004820152602d60248201527f4178696f6d4272696467653a20626567696e206d75737420626520657175616c60448201526c20746f20696e4e6f6e63652b3160981b6064820152608490fd5b1561230757565b60405162461bcd60e51b815260206004820152602960248201527f4178696f6d4272696467653a207472616e73666572446174612063616e6e6f7460448201526820626520656d70747960b81b6064820152608490fd5b1561236557565b60405162461bcd60e51b815260206004820152602b60248201527f4178696f6d4272696467653a20636f6d6d697373696f6e446174612063616e6e60448201526a6f7420626520656d70747960a81b6064820152608490fd5b156123c557565b60405162461bcd60e51b815260206004820152602b60248201527f4178696f6d4272696467653a20656e64206d757374206265206772656174657260448201526a103a3430b7103132b3b4b760a91b6064820152608490fd5b1561242557565b60405162461bcd60e51b815260206004820152603c60248201527f4178696f6d4272696467653a20656e64486569676874206d757374206265206760448201527f726561746572207468616e2064657465726d696e6564486569676874000000006064820152608490fd5b1561249757565b60405162461bcd60e51b815260206004820152602f60248201527f4178696f6d4272696467653a20676173457374696d617465206d75737420626560448201526e02067726561746572207468616e203608c1b6064820152608490fd5b8060001904821181151516612507570290565b61250f611f63565b0290565b811561251d570490565b634e487b7160e01b600052601260045260246000fd5b6001906000198114611f93570190565b6020918151811015612558575b60051b010190565b612560611a3a565b612550565b81198111611f93570190565b956126229094939192946125ba6125ae6125a961259c8961ffff166000526072602052604060002090565b546001600160401b031690565b61227f565b6001600160401b031690565b906125f76001600160401b03926125d584871691821461229e565b6125e18b511515612300565b6125ed8751151561235e565b83881610156123be565b61260560655489101561241e565b16612611811515612490565b61261d8851913a6124f4565b612513565b9360005b8751811015612892576126398189612543565b51519061265661061961042d84600052606a602052604060002090565b808961267b60206126708461266a88611af8565b94612543565b51015182868c612a93565b61269e8d61268f6040989498968792612543565b5101516001600160a01b031690565b926126a881611e28565b156127e4576126c183600052606e602052604060002090565b606754612710906126fb908a906126f5906001600160a01b03165b80959060018060a01b0316600052602052604060002090565b54612565565b9161048c86600052606e602052604060002090565b556001600160a01b031690813b1561000e5784516340c10f1960e01b81526001600160a01b0385166004820152602481018290526127bf977fcf2d69fb80cd53ba833954b46d72867d129bd4f56b986c4f80d114a0be9a1cd6966127b794919290916000908290604490829084905af180156127d7575b6127c4575b505b5194859485909493926060926080830196835260018060a01b0316602083015260408201520152565b0390a1612533565b612626565b8061054b6127d1926114e8565b3861278c565b6127df611fb4565b612787565b506127b7906127bf967fcf2d69fb80cd53ba833954b46d72867d129bd4f56b986c4f80d114a0be9a1cd69561282385600052606d602052604060002090565b606754612857906128429085906126f5906001600160a01b03166126dc565b9161048c88600052606d602052604060002090565b55612874836126f58861048c89600052606d602052604060002090565b61288c8761048c88600052606d602052604060002090565b5561278e565b509194909295935060005b855181101561299557806128c66128c16128ba612946948a612543565b5151611af8565b611e28565b1561294b576128ea6128d88288612543565b5151600052606e602052604060002090565b606754612940906129329061291c906001600160a01b03165b80949060018060a01b0316600052602052604060002090565b546020612929868d612543565b51015190612565565b9161048c6128d8858c612543565b55612533565b61289d565b61296a6129588289612543565b5151600052606d602052604060002090565b606754612940906129879061291c906001600160a01b0316612903565b9161048c612958858c612543565b509092506120f29193507fab7ba69bf93957996016ce440ed2c070c002d46facad87acfa8e0f70d9f3021b946129f8816129dd8661ffff166000526072602052604060002090565b906001600160401b03166001600160401b0319825416179055565b612a0182606555565b60405194859485909493929160609261ffff60808401971683526001600160401b0380921660208401521660408201520152565b9081602091031261000e575160ff8116810361000e5790565b60ff16604d8111612a60575b600a0a90565b612a68611f63565b612a5a565b9081602091031261000e575190565b818110612a87570390565b612a8f611f63565b0390565b6067546000959493919286929160a01c60ff1615612c00574603612ace575050925b81841015612ac8575082611e8b91612a7c565b92509190565b612b6b612b37612b8494612aef6104b36104b360665460018060a01b031690565b60405163067aa55560e51b81526001600160a01b0386166004820152909460209384939192612b3d92919085816024818c5afa908115612bf3575b8a91612bc6575b50612a4e565b906124f4565b6040516302c68be360e31b81526001600160a01b039092166004830152949093849190829081906024820190565b03915afa938415612bb9575b93612b8a575b5050612513565b92612ab5565b612baa929350803d10612bb2575b612ba2818361153e565b810190612a6d565b903880612b7d565b503d612b98565b612bc1611fb4565b612b77565b612be69150863d8811612bec575b612bde818361153e565b810190612a35565b38612b31565b503d612bd4565b612bfb611fb4565b612b2a565b505093505090565b15612c0f57565b60405162461bcd60e51b815260206004820152601b60248201527f54686520746f6b656e206973206e6f74207265676973746572656400000000006044820152606490fd5b15612c5b57565b60405162461bcd60e51b81526020600482015260166024820152756e6f2070656e64696e67207769746864726177616c7360501b6044820152606490fd5b60405190600060208301928084106001600160401b03851117612cc4575b8360405281815292369037565b612ccc6114d1565b612cb7565b3d15612d19573d906001600160401b038211612d0c575b60405191612d00601f8201601f19166020018461153e565b82523d6000602084013e565b612d146114d1565b612ce8565b606090565b15612d2557565b60405162461bcd60e51b815260206004820152603060248201527f4178696f6d4272696467653a736166655472616e736665724554483a2045544860448201526f081d1c985b9cd9995c8819985a5b195960821b6064820152608490fd5b60405163a9059cbb60e01b60208083019182526001600160a01b039490941660248301526044808301959095529381529192612e1c92916000908190612dca60648661153e565b60018060a01b03169260405194612de086611508565b8786527f5361666545524332303a206c6f772d6c6576656c2063616c6c206661696c656488870152519082855af1612e16612cd1565b91612ea4565b805190828215928315612e8c575b50505015612e355750565b6084906040519062461bcd60e51b82526004820152602a60248201527f5361666545524332303a204552433230206f7065726174696f6e20646964206e6044820152691bdd081cdd58d8d9595960b21b6064820152fd5b612e9c9350820181019101611f9f565b388281612e2a565b91929015612f065750815115612eb8575090565b3b15612ec15790565b60405162461bcd60e51b815260206004820152601d60248201527f416464726573733a2063616c6c20746f206e6f6e2d636f6e74726163740000006044820152606490fd5b825190915015612f195750805190602001fd5b60405162461bcd60e51b8152908190612f3590600483016113d8565b0390fd5b606f5490600160401b821015612fb3575b6001820180606f55821015612fa6575b606f6000528160041c7f39f2babe526038520877fc7c33d81accf578af4a06c5fa6b0d038cae36e12711019160f083549160041b169161ffff9283811b93849216901b16911916179055565b612fae611a3a565b612f5a565b612fbb6114d1565b612f4a56fea2646970667358221220055c8b5742a07ade60bbfe1c3128fa752e961c563d2cc3d6f4b4c6acd49330cd64736f6c634300080d0033",
  "linkReferences": {},
  "deployedLinkReferences": {}
}