{
  "_format": "hh-sol-artifact-1",
  "contractName": "AxiomBridge",
  "sourceName": "contracts/AxiomBridge.sol",
  "abi": [
    {
      "anonymous": false,
      "inputs": [
        {
          "indexed": false,
          "internalType": "uint8",
          "name": "version",
          "type": "uint8"
        }
      ],
      "name": "Initialized",
      "type": "event"
    },
    {
      "anonymous": false,
      "inputs": [
        {
          "indexed": false,
          "internalType": "uint256",
          "name": "assetId",
          "type": "uint256"
        },
        {
          "indexed": false,
          "internalType": "address",
          "name": "tokenAddr",
          "type": "address"
        },
        {
          "indexed": false,
          "internalType": "uint256",
          "name": "minTransferAmount",
          "type": "uint256"
        }
      ],
      "name": "LogAssetRegistered",
      "type": "event"
    },
    {
      "anonymous": false,
      "inputs": [
        {
          "indexed": false,
          "internalType": "uint16",
          "name": "channel",
          "type": "uint16"
        },
        {
          "indexed": false,
          "internalType": "address",
          "name": "committer",
          "type": "address"
        }
      ],
      "name": "LogChannelRegistered",
      "type": "event"
    },
    {
      "anonymous": false,
      "inputs": [
        {
          "indexed": false,
          "internalType": "uint16",
          "name": "channel",
          "type": "uint16"
        },
        {
          "indexed": false,
          "internalType": "address",
          "name": "committer",
          "type": "address"
        }
      ],
      "name": "LogChannelUpdated",
      "type": "event"
    },
    {
      "anonymous": false,
      "inputs": [
        {
          "indexed": false,
          "internalType": "uint16",
          "name": "channel",
          "type": "uint16"
        },
        {
          "indexed": false,
          "internalType": "uint64",
          "name": "begin",
          "type": "uint64"
        },
        {
          "indexed": false,
          "internalType": "uint64",
          "name": "end",
          "type": "uint64"
        },
        {
          "indexed": false,
          "internalType": "uint256",
          "name": "endHeight",
          "type": "uint256"
        }
      ],
      "name": "LogTransferFinalized",
      "type": "event"
    },
    {
      "anonymous": false,
      "inputs": [
        {
          "indexed": false,
          "internalType": "uint256",
          "name": "assetId",
          "type": "uint256"
        },
        {
          "indexed": false,
          "internalType": "address",
          "name": "receiver",
          "type": "address"
        },
        {
          "indexed": false,
          "internalType": "uint256",
          "name": "bridgeFee",
          "type": "uint256"
        },
        {
          "indexed": false,
          "internalType": "uint256",
          "name": "remainFee",
          "type": "uint256"
        }
      ],
      "name": "LogTransferFinalizedData",
      "type": "event"
    },
    {
      "anonymous": false,
      "inputs": [
        {
          "indexed": false,
          "internalType": "uint256",
          "name": "assetId",
          "type": "uint256"
        },
        {
          "indexed": false,
          "internalType": "address",
          "name": "sender",
          "type": "address"
        },
        {
          "indexed": false,
          "internalType": "address",
          "name": "to",
          "type": "address"
        },
        {
          "indexed": false,
          "internalType": "uint256",
          "name": "amount",
          "type": "uint256"
        },
        {
          "indexed": false,
          "internalType": "uint16",
          "name": "channel",
          "type": "uint16"
        },
        {
          "indexed": false,
          "internalType": "uint64",
          "name": "nonce",
          "type": "uint64"
        },
        {
          "indexed": false,
          "internalType": "uint256",
          "name": "dstChainId",
          "type": "uint256"
        }
      ],
      "name": "LogTransferInitiated",
      "type": "event"
    },
    {
      "anonymous": false,
      "inputs": [
        {
          "indexed": false,
          "internalType": "uint256",
          "name": "assetId",
          "type": "uint256"
        },
        {
          "indexed": false,
          "internalType": "address",
          "name": "to",
          "type": "address"
        },
        {
          "indexed": false,
          "internalType": "uint256",
          "name": "amount",
          "type": "uint256"
        }
      ],
      "name": "LogWithdrawal",
      "type": "event"
    },
    {
      "anonymous": false,
      "inputs": [
        {
          "indexed": false,
          "internalType": "uint256",
          "name": "assetId",
          "type": "uint256"
        },
        {
          "indexed": false,
          "internalType": "address",
          "name": "to",
          "type": "address"
        },
        {
          "indexed": false,
          "internalType": "uint256",
          "name": "amount",
          "type": "uint256"
        }
      ],
      "name": "LogWithdrawalWtoken",
      "type": "event"
    },
    {
      "anonymous": false,
      "inputs": [
        {
          "indexed": true,
          "internalType": "address",
          "name": "previousOwner",
          "type": "address"
        },
        {
          "indexed": true,
          "internalType": "address",
          "name": "newOwner",
          "type": "address"
        }
      ],
      "name": "OwnershipTransferred",
      "type": "event"
    },
    {
      "anonymous": false,
      "inputs": [
        {
          "indexed": false,
          "internalType": "address",
          "name": "account",
          "type": "address"
        }
      ],
      "name": "Paused",
      "type": "event"
    },
    {
      "anonymous": false,
      "inputs": [
        {
          "indexed": false,
          "internalType": "address",
          "name": "account",
          "type": "address"
        }
      ],
      "name": "Unpaused",
      "type": "event"
    },
    {
      "inputs": [
        {
          "components": [
            {
              "internalType": "uint256",
              "name": "assetId",
              "type": "uint256"
            },
            {
              "internalType": "uint256",
              "name": "amount",
              "type": "uint256"
            },
            {
              "internalType": "address",
              "name": "receipt",
              "type": "address"
            }
          ],
          "internalType": "struct BridgeStorage.TransferItem[]",
          "name": "transferData",
          "type": "tuple[]"
        },
        {
          "components": [
            {
              "internalType": "uint256",
              "name": "assetId",
              "type": "uint256"
            },
            {
              "internalType": "uint256",
              "name": "amount",
              "type": "uint256"
            }
          ],
          "internalType": "struct BridgeStorage.CommissionItem[]",
          "name": "commissionData",
          "type": "tuple[]"
        },
        {
          "internalType": "uint16",
          "name": "channel",
          "type": "uint16"
        },
        {
          "internalType": "uint64",
          "name": "begin",
          "type": "uint64"
        },
        {
          "internalType": "uint64",
          "name": "end",
          "type": "uint64"
        },
        {
          "internalType": "uint256",
          "name": "endHeight",
          "type": "uint256"
        },
        {
          "internalType": "uint64",
          "name": "gasEstimate",
          "type": "uint64"
        }
      ],
      "name": "batchFinalizeTransfer",
      "outputs": [],
      "stateMutability": "nonpayable",
      "type": "function"
    },
    {
      "inputs": [
        {
          "internalType": "address",
          "name": "recipient",
          "type": "address"
        },
        {
          "internalType": "uint16",
          "name": "channel",
          "type": "uint16"
        }
      ],
      "name": "depositNativeTokenTo",
      "outputs": [],
      "stateMutability": "payable",
      "type": "function"
    },
    {
      "inputs": [
        {
          "internalType": "uint256",
          "name": "assetId",
          "type": "uint256"
        },
        {
          "internalType": "uint256",
          "name": "amount",
          "type": "uint256"
        },
        {
          "internalType": "address",
          "name": "recipient",
          "type": "address"
        },
        {
          "internalType": "uint16",
          "name": "channel",
          "type": "uint16"
        }
      ],
      "name": "despositErc20To",
      "outputs": [],
      "stateMutability": "nonpayable",
      "type": "function"
    },
    {
      "inputs": [
        {
          "internalType": "uint256",
          "name": "assetId",
          "type": "uint256"
        }
      ],
      "name": "getAssetAddr",
      "outputs": [
        {
          "internalType": "address",
          "name": "",
          "type": "address"
        }
      ],
      "stateMutability": "view",
      "type": "function"
    },
    {
      "inputs": [
        {
          "internalType": "uint256",
          "name": "assetId",
          "type": "uint256"
        }
      ],
      "name": "getAssetMinAmount",
      "outputs": [
        {
          "internalType": "uint256",
          "name": "",
          "type": "uint256"
        }
      ],
      "stateMutability": "view",
      "type": "function"
    },
    {
      "inputs": [],
      "name": "getBridgeFeeRequired",
      "outputs": [
        {
          "internalType": "bool",
          "name": "",
          "type": "bool"
        }
      ],
      "stateMutability": "view",
      "type": "function"
    },
    {
      "inputs": [
        {
          "internalType": "uint256",
          "name": "assetId",
          "type": "uint256"
        }
      ],
      "name": "getBridgeProfit",
      "outputs": [
        {
          "internalType": "uint256",
          "name": "",
          "type": "uint256"
        }
      ],
      "stateMutability": "view",
      "type": "function"
    },
    {
      "inputs": [],
      "name": "getChannels",
      "outputs": [
        {
          "internalType": "uint16[]",
          "name": "",
          "type": "uint16[]"
        }
      ],
      "stateMutability": "view",
      "type": "function"
    },
    {
      "inputs": [],
      "name": "getDeterminedHeight",
      "outputs": [
        {
          "internalType": "uint256",
          "name": "",
          "type": "uint256"
        }
      ],
      "stateMutability": "view",
      "type": "function"
    },
    {
      "inputs": [],
      "name": "getDstChainId",
      "outputs": [
        {
          "internalType": "uint256",
          "name": "",
          "type": "uint256"
        }
      ],
      "stateMutability": "view",
      "type": "function"
    },
    {
      "inputs": [
        {
          "internalType": "uint16",
          "name": "channel",
          "type": "uint16"
        }
      ],
      "name": "getInNonce",
      "outputs": [
        {
          "internalType": "uint64",
          "name": "",
          "type": "uint64"
        }
      ],
      "stateMutability": "view",
      "type": "function"
    },
    {
      "inputs": [
        {
          "internalType": "uint16",
          "name": "channel",
          "type": "uint16"
        }
      ],
      "name": "getOutNonce",
      "outputs": [
        {
          "internalType": "uint64",
          "name": "",
          "type": "uint64"
        }
      ],
      "stateMutability": "view",
      "type": "function"
    },
    {
      "inputs": [],
      "name": "getPriceConsumer",
      "outputs": [
        {
          "internalType": "address",
          "name": "",
          "type": "address"
        }
      ],
      "stateMutability": "view",
      "type": "function"
    },
    {
      "inputs": [],
      "name": "getRegisterAssets",
      "outputs": [
        {
          "internalType": "uint256[]",
          "name": "",
          "type": "uint256[]"
        }
      ],
      "stateMutability": "view",
      "type": "function"
    },
    {
      "inputs": [],
      "name": "getTreasury",
      "outputs": [
        {
          "internalType": "address",
          "name": "",
          "type": "address"
        }
      ],
      "stateMutability": "view",
      "type": "function"
    },
    {
      "inputs": [
        {
          "internalType": "uint256",
          "name": "assetId",
          "type": "uint256"
        }
      ],
      "name": "getWithdrawAmount",
      "outputs": [
        {
          "internalType": "uint256",
          "name": "",
          "type": "uint256"
        }
      ],
      "stateMutability": "view",
      "type": "function"
    },
    {
      "inputs": [
        {
          "internalType": "address payable",
          "name": "_treasuryAddr",
          "type": "address"
        },
        {
          "internalType": "bool",
          "name": "_bridgeFeeRequired",
          "type": "bool"
        },
        {
          "internalType": "uint256",
          "name": "_dstChainId",
          "type": "uint256"
        }
      ],
      "name": "initialize",
      "outputs": [],
      "stateMutability": "nonpayable",
      "type": "function"
    },
    {
      "inputs": [
        {
          "internalType": "uint256",
          "name": "assetId",
          "type": "uint256"
        }
      ],
      "name": "isAssetRegistered",
      "outputs": [
        {
          "internalType": "bool",
          "name": "",
          "type": "bool"
        }
      ],
      "stateMutability": "view",
      "type": "function"
    },
    {
      "inputs": [],
      "name": "isBridgeFeeRequired",
      "outputs": [
        {
          "internalType": "bool",
          "name": "",
          "type": "bool"
        }
      ],
      "stateMutability": "view",
      "type": "function"
    },
    {
      "inputs": [
        {
          "internalType": "uint16",
          "name": "_channelId",
          "type": "uint16"
        }
      ],
      "name": "isChannelRegistered",
      "outputs": [
        {
          "internalType": "bool",
          "name": "",
          "type": "bool"
        }
      ],
      "stateMutability": "view",
      "type": "function"
    },
    {
      "inputs": [],
      "name": "owner",
      "outputs": [
        {
          "internalType": "address",
          "name": "",
          "type": "address"
        }
      ],
      "stateMutability": "view",
      "type": "function"
    },
    {
      "inputs": [],
      "name": "pause",
      "outputs": [],
      "stateMutability": "nonpayable",
      "type": "function"
    },
    {
      "inputs": [],
      "name": "paused",
      "outputs": [
        {
          "internalType": "bool",
          "name": "",
          "type": "bool"
        }
      ],
      "stateMutability": "view",
      "type": "function"
    },
    {
      "inputs": [
        {
          "internalType": "uint16",
          "name": "_channel",
          "type": "uint16"
        },
        {
          "internalType": "address",
          "name": "_committer",
          "type": "address"
        }
      ],
      "name": "registerChannel",
      "outputs": [],
      "stateMutability": "nonpayable",
      "type": "function"
    },
    {
      "inputs": [
        {
          "internalType": "uint256",
          "name": "assetId",
          "type": "uint256"
        },
        {
          "internalType": "address",
          "name": "tokenAddr",
          "type": "address"
        },
        {
          "internalType": "uint256",
          "name": "minTransferAmount",
          "type": "uint256"
        }
      ],
      "name": "registerToken",
      "outputs": [],
      "stateMutability": "nonpayable",
      "type": "function"
    },
    {
      "inputs": [],
      "name": "renounceOwnership",
      "outputs": [],
      "stateMutability": "nonpayable",
      "type": "function"
    },
    {
      "inputs": [
        {
          "internalType": "uint16",
          "name": "_channel",
          "type": "uint16"
        },
        {
          "internalType": "address",
          "name": "_committer",
          "type": "address"
        }
      ],
      "name": "setChannelComitter",
      "outputs": [],
      "stateMutability": "nonpayable",
      "type": "function"
    },
    {
      "inputs": [
        {
          "internalType": "address",
          "name": "_priceConsumer",
          "type": "address"
        }
      ],
      "name": "setPriceConsumer",
      "outputs": [],
      "stateMutability": "nonpayable",
      "type": "function"
    },
    {
      "inputs": [
        {
          "internalType": "address",
          "name": "newOwner",
          "type": "address"
        }
      ],
      "name": "transferOwnership",
      "outputs": [],
      "stateMutability": "nonpayable",
      "type": "function"
    },
    {
      "inputs": [],
      "name": "unpause",
      "outputs": [],
      "stateMutability": "nonpayable",
      "type": "function"
    },
    {
      "inputs": [
        {
          "internalType": "uint256",
          "name": "assetId",
          "type": "uint256"
        }
      ],
      "name": "withdraw",
      "outputs": [],
      "stateMutability": "nonpayable",
      "type": "function"
    },
    {
      "inputs": [
        {
          "internalType": "uint256",
          "name": "assetId",
          "type": "uint256"
        }
      ],
      "name": "withdrawPengdingWtoken",
      "outputs": [],
      "stateMutability": "nonpayable",
      "type": "function"
    },
    {
      "inputs": [
        {
          "internalType": "uint256",
          "name": "assetId",
          "type": "uint256"
        },
        {
          "internalType": "uint256",
          "name": "amount",
          "type": "uint256"
        },
        {
          "internalType": "address",
          "name": "recipient",
          "type": "address"
        },
        {
          "internalType": "uint16",
          "name": "channel",
          "type": "uint16"
        }
      ],
      "name": "withdrawalWTokenTo",
      "outputs": [],
      "stateMutability": "nonpayable",
      "type": "function"
    }
  ],
  "bytecode": "0x6080806040523461001657612f99908161001c8239f35b600080fdfe60806040526004361015610013575b600080fd5b60003560e01c8063049f5ade1461029e578063073d96e4146102685780632035cfa51461029557806321ef65411461028c57806326a823c9146102835780632bdff8be1461027a5780632e1a7d4d1461027157806339091941146102685780633b19e84a1461025f5780633ed2c35b146102565780633f4ba83a1461024d5780634bcb5916146102445780635c975abb1461023b578063715018a6146102325780637430a0a5146102295780638456cb591461022057806386e76f731461021757806389f03b581461020e5780638da5cb5b146102055780638ed122fd146101fc578063947fe20a146101f35780639575f6ac146101ea578063a8d9bcef146101e1578063b21d0c4b146101d8578063b51b8ce4146101cf578063c4a512b1146101c6578063ce26e9ef146101bd578063e14f2678146101b4578063e37ff29f146101ab578063e445dc43146101a2578063e71be60314610199578063f2fde38b146101905763fe442f411461018857600080fd5b61000e6118c1565b5061000e61182f565b5061000e6117f0565b5061000e6117a3565b5061000e6116a3565b5061000e611597565b5061000e6113f5565b5061000e6113c4565b5061000e6112ec565b5061000e6112ad565b5061000e61125b565b5061000e610e7e565b5061000e610d50565b5061000e610c20565b5061000e610bf6565b5061000e610b19565b5061000e610a9f565b5061000e610a44565b5061000e610a25565b5061000e6109c3565b5061000e61099f565b5061000e610894565b5061000e6107ff565b5061000e6107c4565b5061000e61079a565b5061000e6102db565b5061000e61069f565b5061000e610598565b5061000e6103e2565b5061000e610329565b5061000e610302565b503461000e57602036600319011261000e57600435600052606a602052602060ff604060002054166040519015158152f35b600091031261000e57565b503461000e57600036600319011261000e57602060ff60675460a01c166040519015158152f35b503461000e57602036600319011261000e576020610321600435611a7b565b604051908152f35b503461000e576000806003193601126103df5760405180916069549081835260208093018092606983527f7fb4302e8e91f9110a6554c2c0a24601252c2a42c2220ca988efcfe39991430890835b8181106103cb575050508461038d91038561148c565b60405193838594850191818652518092526040850193925b8281106103b457505050500390f35b8351855286955093810193928101926001016103a5565b825484529286019260019283019201610377565b80fd5b503461000e57602036600319011261000e576004356103ff611d32565b61042561042061041983600052606a602052604060002090565b5460ff1690565b612b56565b61044f61043c82600052606e602052604060002090565b3360009081526020919091526040902090565b549061045c821515612ba2565b6000918261048f3361047885600052606e602052604060002090565b9060018060a01b0316600052602052604060002090565b556104ab61049f61049f84611a46565b6001600160a01b031690565b91823b15610550576040516340c10f1960e01b8152336004820152602481018390527f757e798a5de94b9d773c8f877d076c1ee064dbbb9ef619afc7ccd829afbeed9a9385908290604490829084905af18015610543575b61052a575b506040805191825233602083015281019190915280606081015b0390a1604051f35b8061053761053d92611436565b806102d0565b38610508565b61054b611f02565b610503565b8380fd5b6001600160a01b0381160361000e57565b6024359061ffff8216820361000e57565b6004359061ffff8216820361000e57565b6044359061ffff8216820361000e57565b50604036600319011261000e576004356105b181610554565b6105b9610565565b6105c1611d32565b61ffff811660005260706020526105df60ff60406000205416611c17565b3415610634576106329146600052606a60205261060a610605604060002060ff90541690565b611c63565b61061346611a46565b9061062861062046611a7b565b341015611cc0565b3491339046611f0f565b005b60405162461bcd60e51b815260206004820152603860248201527f4178696f6d4272696467653a20546869732066756e6374696f6e2063616c6c2060448201527f6d757374206361727279206e617469766520746f6b656e7300000000000000006064820152608490fd5b503461000e57602036600319011261000e576004356106bc611d32565b7ff14cd1bb289d45f28f1d192add66893331fa3b3fa7a2a9dd1cc7e076dd817e19600091808352606a6020526106f860ff604085205416612b56565b61070f61043c82600052606d602052604060002090565b549061071c821515612ba2565b836107353361047884600052606d602052604060002090565b5546810361077f57610762848061074a612be7565b60208151910186335af161075c612c1f565b50612c6c565b604080519182523360208301528101919091528060608101610522565b610795823361079061049f85611a46565b612cd1565b610762565b503461000e57600036600319011261000e576067546040516001600160a01b039091168152602090f35b503461000e57602036600319011261000e5761ffff6107e1610576565b166000526070602052602060ff604060002054166040519015158152f35b503461000e57600036600319011261000e576108196118e0565b60745460ff8116156108585760ff19166074557f5db9ee0a495bf2e6ff9c91a7834c1ba4fdd244a5e8aa4e537bd38aeae4b073aa6020604051338152a1005b60405162461bcd60e51b815260206004820152601460248201527314185d5cd8589b194e881b9bdd081c185d5cd95960621b6044820152606490fd5b503461000e57604036600319011261000e576108ae610576565b6024356108ba81610554565b6108c26118e0565b61ffff8216600052607060205260ff6040600020541615610961578161093a8261091b7f54940aedfbdfe2b0bb8367a7c16ee6079cab56deb56b6686cca50520bf6beebc9561ffff166000526071602052604060002090565b80546001600160a01b0319166001600160a01b03909216919091179055565b6040805161ffff90921682526001600160a01b03909216602082015290819081015b0390a1005b60405162461bcd60e51b815260206004820152601660248201527510d2105393915317d393d517d49151d254d51154915160521b6044820152606490fd5b503461000e57600036600319011261000e57602060ff607454166040519015158152f35b503461000e576000806003193601126103df576109de6118e0565b603380546001600160a01b031981169091556040519082906001600160a01b03167f8be0079c531659141344cd1fd0a4f28419497f9722a3daafe3b4186f6b6457e08284a3f35b503461000e57600036600319011261000e576020606554604051908152f35b503461000e57600036600319011261000e57610a5e6118e0565b610a66611d32565b600160ff1960745416176074557f62e78cea01bee320cd4e420270b5ea74000d11b0c9f74754ebdbfc544b05a2586020604051338152a1005b503461000e57602036600319011261000e57600435610abd81610554565b610ac56118e0565b606680546001600160a01b0319166001600160a01b0392909216919091179055005b608090600319011261000e576004359060243590604435610b0781610554565b9060643561ffff8116810361000e5790565b503461000e57610b2836610ae7565b9190610b32611d32565b61ffff83166000526070602052610b5060ff60406000205416611c17565b83600052606a602052610b6a60ff60406000205416611c63565b610b7384611a46565b93610b88610b8082611a7b565b841015611cc0565b610b9185611d76565b15610ba157610632943391611f0f565b60405162461bcd60e51b815260206004820152602760248201527f4178696f6d4272696467653a206f6e6c792077546f6b656e2063616e207769746044820152661a191c985dd85b60ca1b6064820152608490fd5b503461000e57600036600319011261000e576033546040516001600160a01b039091168152602090f35b503461000e57606036600319011261000e57600435602435610c4181610554565b60443591610c4d6118e0565b80600052606a60205260ff60406000205416610d0b5761095c7ffab9ac55741072b33a7743a03cd14e80cfb39d22f2c2ca3b558bb6ff4f4924a193610cac610c9f84600052606a602052604060002090565b805460ff19166001179055565b610cc48461091b85600052606b602052604060002090565b80610cd984600052606c602052604060002090565b55610ce38361199f565b604080519384526001600160a01b039094166020840152928201929092529081906060820190565b60405162461bcd60e51b815260206004820152601860248201527f41535345545f414c52454144595f5245474953544552454400000000000000006044820152606490fd5b503461000e57604036600319011261000e57610d6a610576565b602435610d7681610554565b610d7e6118e0565b61ffff8216600052607060205260ff60406000205416610dfa5781610dd5610c9f7f523517aa3037d5f5f84f0a660056a28362329b0fbbaa832529e8167794c059a19461ffff166000526070602052604060002090565b610df18261091b8361ffff166000526071602052604060002090565b61093a81612edc565b60405162461bcd60e51b815260206004820152601a60248201527f4348414e4e454c5f414c52454144595f524547495354455245440000000000006044820152606490fd5b6020908160408183019282815285518094520193019160005b828110610e66575050505090565b835161ffff1685529381019392810192600101610e58565b503461000e57600036600319011261000e5760408051606f548082529160208201606f600052927f39f2babe526038520877fc7c33d81accf578af4a06c5fa6b0d038cae36e12711906000915b81600f8401106110f45794610f68928592610f729754918181106110df575b8181106110c6575b8181106110ae575b818110611095575b81811061107e575b818110611065575b81811061104c575b818110611033575b81811061101a575b818110611001575b818110610fe8575b818110610fcf575b818110610fb6575b818110610f9d575b818110610f84575b10610f76575b50038361148c565b5191829182610e3f565b0390f35b60f01c815260200138610f60565b60e083901c61ffff168452926001906020019301610f5a565b60d083901c61ffff168452926001906020019301610f52565b60c083901c61ffff168452926001906020019301610f4a565b60b083901c61ffff168452926001906020019301610f42565b60a083901c61ffff168452926001906020019301610f3a565b609083901c61ffff168452926001906020019301610f32565b608083901c61ffff168452926001906020019301610f2a565b607083901c61ffff168452926001906020019301610f22565b606083901c61ffff168452926001906020019301610f1a565b605083901c61ffff168452926001906020019301610f12565b82871c61ffff168452926001906020019301610f0a565b603083901c61ffff168452926001906020019301610f02565b602083811c61ffff1685529093600191019301610efa565b601083901c61ffff168452926001906020019301610ef2565b61ffff83168452926001906020019301610eea565b94600161020060109261125089546112458361ffff6111188282861661ffff169052565b6111428c82866020926111358488018f8486911c1661ffff169052565b8601921c1661ffff169052565b61121e8c6111f6606091611160838701868a60301c1661ffff169052565b611176608091868a848a01921c1661ffff169052565b6111ce60a091611190838901888c60501c1661ffff169052565b6111a660c095888c888c01921c1661ffff169052565b868a61010060e09a6111c28c8201858560701c1661ffff169052565b01921c1661ffff169052565b6111e46101208b01868a60901c1661ffff169052565b84886101408c01921c1661ffff169052565b61120c6101608901848860b01c1661ffff169052565b82866101808a01921c1661ffff169052565b6112346101a08701828660d01c1661ffff169052565b836101c08701921c1661ffff169052565b60f01c6101e0830152565b019601920191610ecb565b503461000e57602036600319011261000e5760043580600052606a60205261128a60ff60406000205416612b56565b6000908152606e6020908152604080832033845282529091205b54604051908152f35b503461000e57602036600319011261000e5761ffff6112ca610576565b16600052607360205260206001600160401b0360406000205416604051908152f35b503461000e576112fb36610ae7565b9190611305611d32565b61ffff8316600052607060205261132360ff60406000205416611c17565b83600052606a60205261133d60ff60406000205416611c63565b61134684611a46565b93611353610b8082611a7b565b61135c85611d76565b61136b57610632943391611f0f565b60405162461bcd60e51b815260206004820152602b60248201527f4178696f6d4272696467653a206f6e6c79206e6f726d616c20546f6b656e206360448201526a30b7103a3930b739b332b960a91b6064820152608490fd5b503461000e57602036600319011261000e5760206113e3600435611a46565b6040516001600160a01b039091168152f35b503461000e57600036600319011261000e576066546040516001600160a01b039091168152602090f35b50634e487b7160e01b600052604160045260246000fd5b6001600160401b03811161144957604052565b61145161141f565b604052565b604081019081106001600160401b0382111761144957604052565b606081019081106001600160401b0382111761144957604052565b90601f801991011681019081106001600160401b0382111761144957604052565b6020906001600160401b0381116114c6575b60051b0190565b6114ce61141f565b6114bf565b81601f8201121561000e578035906114ea826114ad565b926040926114fa8451958661148c565b808552602091828087019260061b8501019381851161000e578301915b8483106115275750505050505090565b858383031261000e57838691825161153e81611456565b853581528286013583820152815201920191611517565b606435906001600160401b038216820361000e57565b608435906001600160401b038216820361000e57565b60c435906001600160401b038216820361000e57565b503461000e5760e036600319011261000e576001600160401b0360043581811161000e573660238201121561000e578060040135916115d5836114ad565b926040926115e58451958661148c565b8185526020808601602460608095028401019236841161000e57602401905b83821061165a57878760243588811161000e5760009261162b6116579236906004016114d3565b90611634610587565b61163c611555565b61164461156b565b9161164d611581565b9460a43594612126565b51f35b848236031261000e57828591885161167181611471565b8435815282850135838201528985013561168a81610554565b8a820152815201910190611604565b8015150361000e57565b503461000e57606036600319011261000e576004356116c181610554565b611717602435916116d183611699565b600054926116f660ff8560081c161580958196611795575b8115611775575b50611aa6565b83611709600160ff196000541617600055565b61175c575b60443591611b09565b61171d57005b61172d61ff001960005416600055565b604051600181527f7f26b83ff96e1f2b6a682f133852f6798a09c465da95921460cefb384740249890602090a1005b61177061010061ff00196000541617600055565b61170e565b303b15915081611787575b50386116f0565b6001915060ff161438611780565b600160ff82161091506116e9565b503461000e57602036600319011261000e5760043580600052606a6020526117d260ff60406000205416612b56565b6000908152606d6020908152604080832033845282529091206112a4565b503461000e57602036600319011261000e5761ffff61180d610576565b16600052607260205260206001600160401b0360406000205416604051908152f35b503461000e57602036600319011261000e5760043561184d81610554565b6118556118e0565b6001600160a01b0381161561186d5761063290611938565b60405162461bcd60e51b815260206004820152602660248201527f4f776e61626c653a206e6577206f776e657220697320746865207a65726f206160448201526564647265737360d01b6064820152608490fd5b503461000e57600036600319011261000e576020606854604051908152f35b6033546001600160a01b031633036118f457565b606460405162461bcd60e51b815260206004820152602060248201527f4f776e61626c653a2063616c6c6572206973206e6f7420746865206f776e65726044820152fd5b6033549060018060a01b0380911691826bffffffffffffffffffffffff60a01b821617603355167f8be0079c531659141344cd1fd0a4f28419497f9722a3daafe3b4186f6b6457e06000604051a3565b50634e487b7160e01b600052603260045260246000fd5b606954600160401b8110156119f6575b60018101806069558110156119e9575b60696000527f7fb4302e8e91f9110a6554c2c0a24601252c2a42c2220ca988efcfe3999143080155565b6119f1611988565b6119bf565b6119fe61141f565b6119af565b15611a0a57565b60405162461bcd60e51b81526020600482015260146024820152731054d4d15517d393d517d49151d254d51154915160621b6044820152606490fd5b80600052606a602052611a6060ff60406000205416611a03565b6000908152606b60205260409020546001600160a01b031690565b80600052606a602052611a9560ff60406000205416611a03565b600052606c60205260406000205490565b15611aad57565b60405162461bcd60e51b815260206004820152602e60248201527f496e697469616c697a61626c653a20636f6e747261637420697320616c72656160448201526d191e481a5b9a5d1a585b1a5e995960921b6064820152608490fd5b6001600160a01b03168015611b66576067549160ff60a01b90151560a01b16916affffffffffffffffffffff60a81b161717606755606855611b5b60ff60005460081c16611b5681611bb7565b611bb7565b611b6433611938565b565b60405162461bcd60e51b815260206004820152602360248201527f4178696f6d4272696467653a2074726561737572792063616e6e6f742062652060448201526203078360ec1b6064820152608490fd5b15611bbe57565b60405162461bcd60e51b815260206004820152602b60248201527f496e697469616c697a61626c653a20636f6e7472616374206973206e6f74206960448201526a6e697469616c697a696e6760a81b6064820152608490fd5b15611c1e57565b60405162461bcd60e51b815260206004820152601a60248201527f6368616e6e656c206d75737420626520726567697374657265640000000000006044820152606490fd5b15611c6a57565b60405162461bcd60e51b815260206004820152602860248201527f4178696f6d4272696467653a2054686520746f6b656e206973206e6f7420726560448201526719da5cdd195c995960c21b6064820152608490fd5b15611cc757565b60405162461bcd60e51b815260206004820152603960248201527f4178696f6d4272696467653a207472616e7366657220616d6f756e74206d757360448201527f742067726561746572207468616e206d696e20616d6f756e74000000000000006064820152608490fd5b60ff60745416611d3e57565b60405162461bcd60e51b815260206004820152601060248201526f14185d5cd8589b194e881c185d5cd95960821b6044820152606490fd5b6040519060208083018160006301ffc9a760e01b9586845286602482015260248152611da181611471565b51617530938685fa933d6000519086611e49575b5085611e3f575b5084611ddc575b50505081611dcf575090565b611dd99150611e54565b90565b83945090600091839460405185810192835263ffffffff60e01b602482015260248152611e0881611471565b5192fa60005190913d83611e34575b505081611e2a575b501590388080611dc3565b9050151538611e1f565b101591503880611e17565b1515945038611dbc565b841115955038611db5565b6000602091604051838101906301ffc9a760e01b825263ec4fc8e360e01b602482015260248152611e8481611471565b5191617530fa6000513d82611ea5575b5081611e9e575090565b9050151590565b60201115915038611e94565b50634e487b7160e01b600052601160045260246000fd5b6001906001600160401b03809116908114611ee1570190565b611ee9611eb1565b0190565b9081602091031261000e5751611dd981611699565b506040513d6000823e3d90fd5b929094919394611f2d8361ffff166000526073602052604060002090565b90611f67611f4a611f4584546001600160401b031690565b611ec8565b835467ffffffffffffffff19166001600160401b03821617909355565b611f7081611d76565b15612065576001600160a01b031692833b1561000e57604051632770a7eb60e21b81526001600160a01b0387166004820152602481018890527f8f3038e873f3f12f9a6253b257d72e1ebb68474437125a89fdb3d9a5844dbb4797612040959091906000908290604490829084905af18015612058575b612045575b505b6068549360405197889788939460c09561ffff92999897936001600160401b039560e088019b885260018060a01b03809216602089015216604087015260608601521660808401521660a08201520152565b0390a1565b8061053761205292611436565b38611fec565b612060611f02565b611fe7565b92867f8f3038e873f3f12f9a6253b257d72e1ebb68474437125a89fdb3d9a5844dbb47976120409546880361209c575b5050611fee565b6040516323b872dd60e01b81526001600160a01b038a8116600483015230602483015260448201939093529160209183916064918391600091165af18015612119575b6120eb575b8190612095565b61210b9060203d8111612112575b612103818361148c565b810190611eed565b50386120e4565b503d6120f9565b612121611f02565b6120df565b959493929190612134611d32565b61ffff8216600052607060205260ff60406000205416806121b1575b1561215e57611b64966124bf565b60405162461bcd60e51b815260206004820152602560248201527f6f6e6c792063616e2062652063616c6c206279206368616e6e656c20636f6d6960448201526403a3a32b9160dd1b6064820152608490fd5b5060716020526040600020546001600160a01b03163314612150565b6001600160401b036001911667fffffffffffffffe8111611ee1570190565b156121f357565b60405162461bcd60e51b815260206004820152602d60248201527f4178696f6d4272696467653a20626567696e206d75737420626520657175616c60448201526c20746f20696e4e6f6e63652b3160981b6064820152608490fd5b1561225557565b60405162461bcd60e51b815260206004820152602960248201527f4178696f6d4272696467653a207472616e73666572446174612063616e6e6f7460448201526820626520656d70747960b81b6064820152608490fd5b156122b357565b60405162461bcd60e51b815260206004820152602b60248201527f4178696f6d4272696467653a20636f6d6d697373696f6e446174612063616e6e60448201526a6f7420626520656d70747960a81b6064820152608490fd5b1561231357565b60405162461bcd60e51b815260206004820152602b60248201527f4178696f6d4272696467653a20656e64206d757374206265206772656174657260448201526a103a3430b7103132b3b4b760a91b6064820152608490fd5b1561237357565b60405162461bcd60e51b815260206004820152603c60248201527f4178696f6d4272696467653a20656e64486569676874206d757374206265206760448201527f726561746572207468616e2064657465726d696e6564486569676874000000006064820152608490fd5b156123e557565b60405162461bcd60e51b815260206004820152602f60248201527f4178696f6d4272696467653a20676173457374696d617465206d75737420626560448201526e02067726561746572207468616e203608c1b6064820152608490fd5b8060001904821181151516612455570290565b61245d611eb1565b0290565b811561246b570490565b634e487b7160e01b600052601260045260246000fd5b6001906000198114611ee1570190565b60209181518110156124a6575b60051b010190565b6124ae611988565b61249e565b81198111611ee1570190565b956125709094939192946125086124fc6124f76124ea8961ffff166000526072602052604060002090565b546001600160401b031690565b6121cd565b6001600160401b031690565b906125456001600160401b03926125238487169182146121ec565b61252f8b51151561224e565b61253b875115156122ac565b838816101561230c565b61255360655489101561236c565b1661255f8115156123de565b61256b8851913a612442565b612461565b9360005b87518110156127e0576125878189612491565b5151906125a461060561041984600052606a602052604060002090565b80896125c960206125be846125b888611a46565b94612491565b51015182868c6129e1565b6125ec8d6125dd6040989498968792612491565b5101516001600160a01b031690565b926125f681611d76565b156127325761260f83600052606e602052604060002090565b60675461265e90612649908a90612643906001600160a01b03165b80959060018060a01b0316600052602052604060002090565b546124b3565b9161047886600052606e602052604060002090565b556001600160a01b031690813b1561000e5784516340c10f1960e01b81526001600160a01b03851660048201526024810182905261270d977fcf2d69fb80cd53ba833954b46d72867d129bd4f56b986c4f80d114a0be9a1cd69661270594919290916000908290604490829084905af18015612725575b612712575b505b5194859485909493926060926080830196835260018060a01b0316602083015260408201520152565b0390a1612481565b612574565b8061053761271f92611436565b386126da565b61272d611f02565b6126d5565b506127059061270d967fcf2d69fb80cd53ba833954b46d72867d129bd4f56b986c4f80d114a0be9a1cd69561277185600052606d602052604060002090565b6067546127a590612790908590612643906001600160a01b031661262a565b9161047888600052606d602052604060002090565b556127c2836126438861047889600052606d602052604060002090565b6127da8761047888600052606d602052604060002090565b556126dc565b509194909295935060005b85518110156128e3578061281461280f612808612894948a612491565b5151611a46565b611d76565b15612899576128386128268288612491565b5151600052606e602052604060002090565b60675461288e906128809061286a906001600160a01b03165b80949060018060a01b0316600052602052604060002090565b546020612877868d612491565b510151906124b3565b91610478612826858c612491565b55612481565b6127eb565b6128b86128a68289612491565b5151600052606d602052604060002090565b60675461288e906128d59061286a906001600160a01b0316612851565b916104786128a6858c612491565b509092506120409193507fab7ba69bf93957996016ce440ed2c070c002d46facad87acfa8e0f70d9f3021b946129468161292b8661ffff166000526072602052604060002090565b906001600160401b03166001600160401b0319825416179055565b61294f82606555565b60405194859485909493929160609261ffff60808401971683526001600160401b0380921660208401521660408201520152565b9081602091031261000e575160ff8116810361000e5790565b60ff16604d81116129ae575b600a0a90565b6129b6611eb1565b6129a8565b9081602091031261000e575190565b8181106129d5570390565b6129dd611eb1565b0390565b6067546000959493919286929160a01c60ff1615612b4e574603612a1c575050925b81841015612a16575082611dd9916129ca565b92509190565b612ab9612a85612ad294612a3d61049f61049f60665460018060a01b031690565b60405163067aa55560e51b81526001600160a01b0386166004820152909460209384939192612a8b92919085816024818c5afa908115612b41575b8a91612b14575b5061299c565b90612442565b6040516302c68be360e31b81526001600160a01b039092166004830152949093849190829081906024820190565b03915afa938415612b07575b93612ad8575b5050612461565b92612a03565b612af8929350803d10612b00575b612af0818361148c565b8101906129bb565b903880612acb565b503d612ae6565b612b0f611f02565b612ac5565b612b349150863d8811612b3a575b612b2c818361148c565b810190612983565b38612a7f565b503d612b22565b612b49611f02565b612a78565b505093505090565b15612b5d57565b60405162461bcd60e51b815260206004820152601b60248201527f54686520746f6b656e206973206e6f74207265676973746572656400000000006044820152606490fd5b15612ba957565b60405162461bcd60e51b81526020600482015260166024820152756e6f2070656e64696e67207769746864726177616c7360501b6044820152606490fd5b60405190600060208301928084106001600160401b03851117612c12575b8360405281815292369037565b612c1a61141f565b612c05565b3d15612c67573d906001600160401b038211612c5a575b60405191612c4e601f8201601f19166020018461148c565b82523d6000602084013e565b612c6261141f565b612c36565b606090565b15612c7357565b60405162461bcd60e51b815260206004820152603060248201527f4178696f6d4272696467653a736166655472616e736665724554483a2045544860448201526f081d1c985b9cd9995c8819985a5b195960821b6064820152608490fd5b60405163a9059cbb60e01b60208083019182526001600160a01b039490941660248301526044808301959095529381529192612d6a92916000908190612d1860648661148c565b60018060a01b03169260405194612d2e86611456565b8786527f5361666545524332303a206c6f772d6c6576656c2063616c6c206661696c656488870152519082855af1612d64612c1f565b91612e3e565b805190828215928315612dda575b50505015612d835750565b6084906040519062461bcd60e51b82526004820152602a60248201527f5361666545524332303a204552433230206f7065726174696f6e20646964206e6044820152691bdd081cdd58d8d9595960b21b6064820152fd5b612dea9350820181019101611eed565b388281612d78565b15612df957565b60405162461bcd60e51b815260206004820152601d60248201527f416464726573733a2063616c6c20746f206e6f6e2d636f6e74726163740000006044820152606490fd5b91929015612e5e5750815115612e52575090565b611dd9903b1515612df2565b825190915015612e715750805190602001fd5b6040519062461bcd60e51b82528160208060048301528251928360248401526000915b848310612ec3575050918060449311612eb6575b601f01601f19168101030190fd5b6000838284010152612ea8565b8183018101518684016044015285935091820191612e94565b606f5490600160401b821015612f56575b6001820180606f55821015612f49575b606f6000528160041c7f39f2babe526038520877fc7c33d81accf578af4a06c5fa6b0d038cae36e12711019160f083549160041b169161ffff9283811b93849216901b16911916179055565b612f51611988565b612efd565b612f5e61141f565b612eed56fea2646970667358221220c9eeb65b4144cc8ef01f64d8e168241c5c6956e0f82b235496976f79ab1d339a64736f6c634300080d0033",
  "linkReferences": {},
  "deployedLinkReferences": {}
}