{
  "_format": "hh-sol-artifact-1",
  "contractName": "BridgeStorage",
  "sourceName": "contracts/BridgeStorage.sol",
  "abi": [
    {
      "anonymous": false,
      "inputs": [
        {
          "indexed": false,
          "internalType": "uint8",
          "name": "version",
          "type": "uint8"
        }
      ],
      "name": "Initialized",
      "type": "event"
    },
    {
      "anonymous": false,
      "inputs": [
        {
          "indexed": true,
          "internalType": "address",
          "name": "previousOwner",
          "type": "address"
        },
        {
          "indexed": true,
          "internalType": "address",
          "name": "newOwner",
          "type": "address"
        }
      ],
      "name": "OwnershipTransferred",
      "type": "event"
    },
    {
      "inputs": [],
      "name": "owner",
      "outputs": [
        {
          "internalType": "address",
          "name": "",
          "type": "address"
        }
      ],
      "stateMutability": "view",
      "type": "function"
    },
    {
      "inputs": [],
      "name": "renounceOwnership",
      "outputs": [],
      "stateMutability": "nonpayable",
      "type": "function"
    },
    {
      "inputs": [
        {
          "internalType": "address",
          "name": "newOwner",
          "type": "address"
        }
      ],
      "name": "transferOwnership",
      "outputs": [],
      "stateMutability": "nonpayable",
      "type": "function"
    }
  ],
  "bytecode": "0x6080806040523461001657610253908161001c8239f35b600080fdfe60806040526004361015610013575b600080fd5b6000803560e01c908163715018a6146100745781638da5cb5b14610049575063f2fde38b1461004157600080fd5b61000e610099565b346100715780600319360112610071576033546040516001600160a01b039091168152602090f35b80fd5b3461007157806003193601126100715761008c61012b565b610094610183565b604051f35b503461000e57602036600319011261000e576004356001600160a01b03811680820361000e576100c761012b565b156100d7576100d5906101cd565b005b60405162461bcd60e51b815260206004820152602660248201527f4f776e61626c653a206e6577206f776e657220697320746865207a65726f206160448201526564647265737360d01b6064820152608490fd5b6033546001600160a01b0316330361013f57565b606460405162461bcd60e51b815260206004820152602060248201527f4f776e61626c653a2063616c6c6572206973206e6f7420746865206f776e65726044820152fd5b60006033546bffffffffffffffffffffffff60a01b811660335560018060a01b03167f8be0079c531659141344cd1fd0a4f28419497f9722a3daafe3b4186f6b6457e082604051a3565b6033549060018060a01b0380911691826bffffffffffffffffffffffff60a01b821617603355167f8be0079c531659141344cd1fd0a4f28419497f9722a3daafe3b4186f6b6457e06000604051a356fea2646970667358221220e09f08f54d038593b1286f488bd2ce3a7d8ba14ee6f331474f8c5b4e21e4080f64736f6c634300080d0033",
  "linkReferences": {},
  "deployedLinkReferences": {}
}