{
  "_format": "hh-sol-artifact-1",
  "contractName": "PriceFeed",
  "sourceName": "contracts/PriceFeed.sol",
  "abi": [
    {
      "inputs": [
        {
          "internalType": "uint8",
          "name": "_deciaml",
          "type": "uint8"
        },
        {
          "internalType": "string",
          "name": "_description",
          "type": "string"
        },
        {
          "internalType": "uint256",
          "name": "_version",
          "type": "uint256"
        }
      ],
      "stateMutability": "nonpayable",
      "type": "constructor"
    },
    {
      "anonymous": false,
      "inputs": [
        {
          "indexed": true,
          "internalType": "int256",
          "name": "current",
          "type": "int256"
        },
        {
          "indexed": true,
          "internalType": "uint256",
          "name": "roundId",
          "type": "uint256"
        },
        {
          "indexed": false,
          "internalType": "uint256",
          "name": "updatedAt",
          "type": "uint256"
        }
      ],
      "name": "AnswerUpdated",
      "type": "event"
    },
    {
      "inputs": [],
      "name": "decimals",
      "outputs": [
        {
          "internalType": "uint8",
          "name": "",
          "type": "uint8"
        }
      ],
      "stateMutability": "view",
      "type": "function"
    },
    {
      "inputs": [],
      "name": "description",
      "outputs": [
        {
          "internalType": "string",
          "name": "",
          "type": "string"
        }
      ],
      "stateMutability": "view",
      "type": "function"
    },
    {
      "inputs": [
        {
          "internalType": "uint80",
          "name": "_roundId",
          "type": "uint80"
        }
      ],
      "name": "getRoundData",
      "outputs": [
        {
          "internalType": "uint80",
          "name": "roundId",
          "type": "uint80"
        },
        {
          "internalType": "int256",
          "name": "answer",
          "type": "int256"
        },
        {
          "internalType": "uint256",
          "name": "startedAt",
          "type": "uint256"
        },
        {
          "internalType": "uint256",
          "name": "updatedAt",
          "type": "uint256"
        },
        {
          "internalType": "uint80",
          "name": "answeredInRound",
          "type": "uint80"
        }
      ],
      "stateMutability": "view",
      "type": "function"
    },
    {
      "inputs": [],
      "name": "latestRoundData",
      "outputs": [
        {
          "internalType": "uint80",
          "name": "roundId",
          "type": "uint80"
        },
        {
          "internalType": "int256",
          "name": "answer",
          "type": "int256"
        },
        {
          "internalType": "uint256",
          "name": "startedAt",
          "type": "uint256"
        },
        {
          "internalType": "uint256",
          "name": "updatedAt",
          "type": "uint256"
        },
        {
          "internalType": "uint80",
          "name": "answeredInRound",
          "type": "uint80"
        }
      ],
      "stateMutability": "view",
      "type": "function"
    },
    {
      "inputs": [
        {
          "internalType": "uint80",
          "name": "",
          "type": "uint80"
        }
      ],
      "name": "roundDataMap",
      "outputs": [
        {
          "internalType": "uint256",
          "name": "startedAt",
          "type": "uint256"
        },
        {
          "internalType": "uint256",
          "name": "updatedAt",
          "type": "uint256"
        },
        {
          "internalType": "int256",
          "name": "answer",
          "type": "int256"
        },
        {
          "internalType": "uint80",
          "name": "answeredInRound",
          "type": "uint80"
        }
      ],
      "stateMutability": "view",
      "type": "function"
    },
    {
      "inputs": [
        {
          "internalType": "int256",
          "name": "answer",
          "type": "int256"
        },
        {
          "internalType": "uint256",
          "name": "startedAt",
          "type": "uint256"
        },
        {
          "internalType": "uint256",
          "name": "updatedAt",
          "type": "uint256"
        }
      ],
      "name": "update",
      "outputs": [],
      "stateMutability": "nonpayable",
      "type": "function"
    },
    {
      "inputs": [],
      "name": "version",
      "outputs": [
        {
          "internalType": "uint256",
          "name": "",
          "type": "uint256"
        }
      ],
      "stateMutability": "view",
      "type": "function"
    }
  ],
  "bytecode": "0x608060405234620000f05762000892803803806200001d816200011c565b9283398101606082820312620000f05781519060ff82168203620000f0576020838101519093906001600160401b0390818111620000f057820183601f82011215620000f0578051918211620000f5575b62000082601f8301601f191687016200011c565b93828552868383010111620000f0576000905b828210620000da575090620000bb95816040949311620000cb575b5050015191620001ea565b6040516105829081620003108239f35b600091850101523880620000b0565b8181018701518583018801529086019062000095565b600080fd5b620000ff62000105565b6200006e565b50634e487b7160e01b600052604160045260246000fd5b6040519190601f01601f191682016001600160401b038111838210176200014257604052565b6200014c62000105565b604052565b90600182811c9216801562000183575b60208310146200016d57565b634e487b7160e01b600052602260045260246000fd5b91607f169162000161565b90601f82116200019c575050565b60019160009083825260208220906020601f850160051c83019410620001df575b601f0160051c01915b828110620001d45750505050565b8181558301620001c6565b9092508290620001bd565b60ff90939291931660ff196000541617600055825160018060401b038111620002ff575b600190620002288162000222845462000151565b6200018e565b602080601f83116001146200026f5750819062000261959660009262000263575b5050600019600383901b1c191690821b179055600255565b565b01519050388062000249565b6001600052601f198316969091907fb10e2d527612073b26eecdfd717e6a320cf44b4afac2b0732d9fcbe2b7fa0cf6926000905b898210620002e757505090839291859462000261989910620002cd575b505050811b019055600255565b015160001960f88460031b161c19169055388080620002c0565b808785968294968601518155019501930190620002a3565b6200030962000105565b6200020e56fe608080604052600436101561001357600080fd5b6000803560e01c918263313ce567146100aa575050806354fd4d50146100a15780637284e416146100985780637b4e9d031461008f5780639a6fc8f514610086578063b1a34f841461007d5763feaf968c14610070575b38600080fd5b6100786104ae565b61006a565b5061007861035a565b506100786102c1565b5061007861026c565b50610078610144565b506100786100c9565b346100c557816003193601126100c55760ff60209254168152f35b5080fd5b50346100e85760003660031901126100e8576020600254604051908152f35b600080fd5b919091602080825283519081818401526000945b82861061012e575050806040939411610121575b601f01601f1916010190565b6000838284010152610115565b8581018201518487016040015294810194610101565b50346100e857600080600319360112610247576040519080600190815480831c9280821692831561023d575b602092838610851461022957858852602088019490811561020d57506001146101b4575b6101b0876101a48189038261051b565b604051918291826100ed565b0390f35b600160005294509192917fb10e2d527612073b26eecdfd717e6a320cf44b4afac2b0732d9fcbe2b7fa0cf65b8386106101fc57505050910190506101a4826101b03880610194565b8054858701529482019481016101e0565b60ff191685525050500191506101a49050826101b03880610194565b634e487b7160e01b82526022600452602482fd5b93607f1693610170565b80fd5b60209060031901126100e8576004356001600160501b03811681036100e85790565b50346100e85760806001600160501b03806102863661024a565b166000526004602052604060002090815491600181015491600360028301549201541691604051938452602084015260408301526060820152f35b50346100e8576102d03661024a565b6001600160501b039081811660005260046020526101b060606040600020936040516102fb816104e9565b855490818152600187015492836020830152600360028901549889604085015201541693849101526040519586958693608093969591929660a08601976001600160501b03809516875260208701526040860152606085015216910152565b50346100e85760603660031901126100e857600435604435906001600160501b03806003541669fffffffffffffffffffe8111610498577f0559884fd3a460db3073b7fc896cc77986f16e378210ded43186175bf646fc5f916103d9600161049393016001600160501b03166001600160501b03196003541617600355565b6104756103ee6003546001600160501b031690565b61043a6103f961053d565b9160243583528860208401528760408401526104218160608501906001600160501b03169052565b6001600160501b03166000526004602052604060002090565b606060036001600160501b039284518155602085015160018201556040850151600282015501920151166001600160501b0319825416179055565b6003546001600160501b031660405195865216939081906020820190565b0390a3005b634e487b7160e01b600052601160045260246000fd5b50346100e85760003660031901126100e8576001600160501b0380600354168060005260046020526101b060606040600020936040516102fb815b6080810190811067ffffffffffffffff82111761050557604052565b634e487b7160e01b600052604160045260246000fd5b90601f8019910116810190811067ffffffffffffffff82111761050557604052565b6040519061054a826104e9565b56fea26469706673582212200d295ebfa0c035578d533d473f98550c06bcab798f69e3739076e85e2d69080f64736f6c634300080d0033",
  "linkReferences": {},
  "deployedLinkReferences": {}
}