{
  "_format": "hh-sol-artifact-1",
  "contractName": "PriceConsumer",
  "sourceName": "contracts/PriceConsumer.sol",
  "abi": [
    {
      "anonymous": false,
      "inputs": [
        {
          "indexed": true,
          "internalType": "address",
          "name": "previousOwner",
          "type": "address"
        },
        {
          "indexed": true,
          "internalType": "address",
          "name": "newOwner",
          "type": "address"
        }
      ],
      "name": "OwnershipTransferred",
      "type": "event"
    },
    {
      "inputs": [
        {
          "internalType": "address",
          "name": "token",
          "type": "address"
        }
      ],
      "name": "getDecimals",
      "outputs": [
        {
          "internalType": "uint8",
          "name": "",
          "type": "uint8"
        }
      ],
      "stateMutability": "view",
      "type": "function"
    },
    {
      "inputs": [
        {
          "internalType": "address",
          "name": "token",
          "type": "address"
        }
      ],
      "name": "getLatestPrice",
      "outputs": [
        {
          "internalType": "int256",
          "name": "",
          "type": "int256"
        }
      ],
      "stateMutability": "view",
      "type": "function"
    },
    {
      "inputs": [
        {
          "internalType": "address",
          "name": "_address",
          "type": "address"
        }
      ],
      "name": "getPriceFeedAddr",
      "outputs": [
        {
          "internalType": "address",
          "name": "",
          "type": "address"
        }
      ],
      "stateMutability": "view",
      "type": "function"
    },
    {
      "inputs": [],
      "name": "owner",
      "outputs": [
        {
          "internalType": "address",
          "name": "",
          "type": "address"
        }
      ],
      "stateMutability": "view",
      "type": "function"
    },
    {
      "inputs": [],
      "name": "renounceOwnership",
      "outputs": [],
      "stateMutability": "nonpayable",
      "type": "function"
    },
    {
      "inputs": [
        {
          "internalType": "address",
          "name": "token",
          "type": "address"
        },
        {
          "internalType": "address",
          "name": "priceFeed",
          "type": "address"
        }
      ],
      "name": "setPriceFeed",
      "outputs": [],
      "stateMutability": "nonpayable",
      "type": "function"
    },
    {
      "inputs": [
        {
          "internalType": "address",
          "name": "newOwner",
          "type": "address"
        }
      ],
      "name": "transferOwnership",
      "outputs": [],
      "stateMutability": "nonpayable",
      "type": "function"
    }
  ],
  "bytecode": "0x6080806040523461005b5760008054336001600160a01b0319821681178355916001600160a01b03909116907f8be0079c531659141344cd1fd0a4f28419497f9722a3daafe3b4186f6b6457e09084a361051290816100618239f35b600080fdfe608080604052600436101561001357600080fd5b6000803560e01c9182631423927b146100aa575050806316345f18146100a1578063715018a61461009857806376e112861461008f5780638da5cb5b14610086578063cf54aaa01461007d5763f2fde38b14610070575b38600080fd5b61007861035f565b61006a565b506100786102ac565b50610078610282565b50610078610227565b506100786101c5565b50610078610100565b346100e15760203660031901126100e1576020916001600160a01b0390604090826100d36100e5565b168152600185522054168152f35b5080fd5b600435906001600160a01b03821682036100fb57565b600080fd5b50346100fb5760203660031901126100fb57600460a06001600160a01b03806101276100e5565b1660005260016020526040600020541660405192838092633fabe5a360e21b82525afa9081156101b8575b600091610169575b604051828152602090f35b0390f35b60a0813d82116101b0575b8161018160a09383610480565b810103126100e1576101659150610197816104b8565b506101a96080602083015192016104b8565b509061015a565b3d9150610174565b6101c06104cf565b610152565b50346100fb57600080600319360112610224576101e0610428565b80546001600160a01b0319811682556040519082906001600160a01b03167f8be0079c531659141344cd1fd0a4f28419497f9722a3daafe3b4186f6b6457e08284a3f35b80fd5b50346100fb5760403660031901126100fb576102416100e5565b6001600160a01b0360243581811692908390036100fb57610260610428565b16600090815260016020526040902080546001600160a01b0319169091179055005b50346100fb5760003660031901126100fb576000546040516001600160a01b039091168152602090f35b50346100fb576020806003193601126100fb576001600160a01b0390600481836102d46100e5565b16936000948552600182526040852054166040519283809263313ce56760e01b82525afa918215610352575b8392610315575b60405160ff84168152602090f35b90809250813d831161034b575b61032c8183610480565b810103126100e1575160ff811681036100e15761016591503880610307565b503d610322565b61035a6104cf565b610300565b50346100fb5760203660031901126100fb576103796100e5565b610381610428565b6001600160a01b039081169081156103d457600080546001600160a01b031981168417825560405191939192167f8be0079c531659141344cd1fd0a4f28419497f9722a3daafe3b4186f6b6457e08484a3f35b60405162461bcd60e51b815260206004820152602660248201527f4f776e61626c653a206e6577206f776e657220697320746865207a65726f206160448201526564647265737360d01b6064820152608490fd5b6000546001600160a01b0316330361043c57565b606460405162461bcd60e51b815260206004820152602060248201527f4f776e61626c653a2063616c6c6572206973206e6f7420746865206f776e65726044820152fd5b90601f8019910116810190811067ffffffffffffffff8211176104a257604052565b634e487b7160e01b600052604160045260246000fd5b519069ffffffffffffffffffff821682036100fb57565b506040513d6000823e3d90fdfea2646970667358221220d2f231a298027a86c3eb0703b20bec72b4a6fb8f3432b3d0e7107d5ad0af88db64736f6c634300080d0033",
  "linkReferences": {},
  "deployedLinkReferences": {}
}