{
  "_format": "hh-sol-artifact-1",
  "contractName": "WrappedToken",
  "sourceName": "contracts/WrappedToken.sol",
  "abi": [
    {
      "inputs": [
        {
          "internalType": "string",
          "name": "tokenName",
          "type": "string"
        },
        {
          "internalType": "string",
          "name": "tokenSymbol",
          "type": "string"
        },
        {
          "internalType": "address",
          "name": "_bridge",
          "type": "address"
        },
        {
          "internalType": "address",
          "name": "_remoteToken",
          "type": "address"
        }
      ],
      "stateMutability": "nonpayable",
      "type": "constructor"
    },
    {
      "anonymous": false,
      "inputs": [
        {
          "indexed": true,
          "internalType": "address",
          "name": "owner",
          "type": "address"
        },
        {
          "indexed": true,
          "internalType": "address",
          "name": "spender",
          "type": "address"
        },
        {
          "indexed": false,
          "internalType": "uint256",
          "name": "value",
          "type": "uint256"
        }
      ],
      "name": "Approval",
      "type": "event"
    },
    {
      "anonymous": false,
      "inputs": [
        {
          "indexed": true,
          "internalType": "address",
          "name": "_account",
          "type": "address"
        },
        {
          "indexed": false,
          "internalType": "uint256",
          "name": "_amount",
          "type": "uint256"
        }
      ],
      "name": "Burn",
      "type": "event"
    },
    {
      "anonymous": false,
      "inputs": [
        {
          "indexed": true,
          "internalType": "address",
          "name": "_account",
          "type": "address"
        },
        {
          "indexed": false,
          "internalType": "uint256",
          "name": "_amount",
          "type": "uint256"
        }
      ],
      "name": "Mint",
      "type": "event"
    },
    {
      "anonymous": false,
      "inputs": [
        {
          "indexed": true,
          "internalType": "address",
          "name": "from",
          "type": "address"
        },
        {
          "indexed": true,
          "internalType": "address",
          "name": "to",
          "type": "address"
        },
        {
          "indexed": false,
          "internalType": "uint256",
          "name": "value",
          "type": "uint256"
        }
      ],
      "name": "Transfer",
      "type": "event"
    },
    {
      "inputs": [],
      "name": "BRIDGE",
      "outputs": [
        {
          "internalType": "address",
          "name": "",
          "type": "address"
        }
      ],
      "stateMutability": "view",
      "type": "function"
    },
    {
      "inputs": [],
      "name": "REMOTE_TOKEN",
      "outputs": [
        {
          "internalType": "address",
          "name": "",
          "type": "address"
        }
      ],
      "stateMutability": "view",
      "type": "function"
    },
    {
      "inputs": [
        {
          "internalType": "address",
          "name": "owner",
          "type": "address"
        },
        {
          "internalType": "address",
          "name": "spender",
          "type": "address"
        }
      ],
      "name": "allowance",
      "outputs": [
        {
          "internalType": "uint256",
          "name": "",
          "type": "uint256"
        }
      ],
      "stateMutability": "view",
      "type": "function"
    },
    {
      "inputs": [
        {
          "internalType": "address",
          "name": "spender",
          "type": "address"
        },
        {
          "internalType": "uint256",
          "name": "amount",
          "type": "uint256"
        }
      ],
      "name": "approve",
      "outputs": [
        {
          "internalType": "bool",
          "name": "",
          "type": "bool"
        }
      ],
      "stateMutability": "nonpayable",
      "type": "function"
    },
    {
      "inputs": [
        {
          "internalType": "address",
          "name": "account",
          "type": "address"
        }
      ],
      "name": "balanceOf",
      "outputs": [
        {
          "internalType": "uint256",
          "name": "",
          "type": "uint256"
        }
      ],
      "stateMutability": "view",
      "type": "function"
    },
    {
      "inputs": [],
      "name": "bridge",
      "outputs": [
        {
          "internalType": "address",
          "name": "",
          "type": "address"
        }
      ],
      "stateMutability": "view",
      "type": "function"
    },
    {
      "inputs": [
        {
          "internalType": "address",
          "name": "_from",
          "type": "address"
        },
        {
          "internalType": "uint256",
          "name": "_amount",
          "type": "uint256"
        }
      ],
      "name": "burn",
      "outputs": [],
      "stateMutability": "nonpayable",
      "type": "function"
    },
    {
      "inputs": [],
      "name": "decimals",
      "outputs": [
        {
          "internalType": "uint8",
          "name": "",
          "type": "uint8"
        }
      ],
      "stateMutability": "view",
      "type": "function"
    },
    {
      "inputs": [
        {
          "internalType": "address",
          "name": "spender",
          "type": "address"
        },
        {
          "internalType": "uint256",
          "name": "subtractedValue",
          "type": "uint256"
        }
      ],
      "name": "decreaseAllowance",
      "outputs": [
        {
          "internalType": "bool",
          "name": "",
          "type": "bool"
        }
      ],
      "stateMutability": "nonpayable",
      "type": "function"
    },
    {
      "inputs": [
        {
          "internalType": "address",
          "name": "spender",
          "type": "address"
        },
        {
          "internalType": "uint256",
          "name": "addedValue",
          "type": "uint256"
        }
      ],
      "name": "increaseAllowance",
      "outputs": [
        {
          "internalType": "bool",
          "name": "",
          "type": "bool"
        }
      ],
      "stateMutability": "nonpayable",
      "type": "function"
    },
    {
      "inputs": [
        {
          "internalType": "address",
          "name": "_to",
          "type": "address"
        },
        {
          "internalType": "uint256",
          "name": "_amount",
          "type": "uint256"
        }
      ],
      "name": "mint",
      "outputs": [],
      "stateMutability": "nonpayable",
      "type": "function"
    },
    {
      "inputs": [],
      "name": "name",
      "outputs": [
        {
          "internalType": "string",
          "name": "",
          "type": "string"
        }
      ],
      "stateMutability": "view",
      "type": "function"
    },
    {
      "inputs": [],
      "name": "remoteToken",
      "outputs": [
        {
          "internalType": "address",
          "name": "",
          "type": "address"
        }
      ],
      "stateMutability": "view",
      "type": "function"
    },
    {
      "inputs": [
        {
          "internalType": "bytes4",
          "name": "_interfaceId",
          "type": "bytes4"
        }
      ],
      "name": "supportsInterface",
      "outputs": [
        {
          "internalType": "bool",
          "name": "",
          "type": "bool"
        }
      ],
      "stateMutability": "pure",
      "type": "function"
    },
    {
      "inputs": [],
      "name": "symbol",
      "outputs": [
        {
          "internalType": "string",
          "name": "",
          "type": "string"
        }
      ],
      "stateMutability": "view",
      "type": "function"
    },
    {
      "inputs": [],
      "name": "totalSupply",
      "outputs": [
        {
          "internalType": "uint256",
          "name": "",
          "type": "uint256"
        }
      ],
      "stateMutability": "view",
      "type": "function"
    },
    {
      "inputs": [
        {
          "internalType": "address",
          "name": "to",
          "type": "address"
        },
        {
          "internalType": "uint256",
          "name": "amount",
          "type": "uint256"
        }
      ],
      "name": "transfer",
      "outputs": [
        {
          "internalType": "bool",
          "name": "",
          "type": "bool"
        }
      ],
      "stateMutability": "nonpayable",
      "type": "function"
    },
    {
      "inputs": [
        {
          "internalType": "address",
          "name": "from",
          "type": "address"
        },
        {
          "internalType": "address",
          "name": "to",
          "type": "address"
        },
        {
          "internalType": "uint256",
          "name": "amount",
          "type": "uint256"
        }
      ],
      "name": "transferFrom",
      "outputs": [
        {
          "internalType": "bool",
          "name": "",
          "type": "bool"
        }
      ],
      "stateMutability": "nonpayable",
      "type": "function"
    }
  ],
  "bytecode": "0x60c060405234620000c35762001346803803806200001d81620000df565b928339810190608081830312620000c35780516001600160401b039190828111620000c357836200005091830162000114565b916020820151908111620000c35762000093936200007091830162000114565b6200008c60606200008460408501620001a8565b9301620001a8565b92620001bd565b604051610e719081620004d58239608051816101e0015260a051818181610558015281816107a30152610a1a0152f35b600080fd5b50634e487b7160e01b600052604160045260246000fd5b6040519190601f01601f191682016001600160401b038111838210176200010557604052565b6200010f620000c8565b604052565b81601f82011215620000c3578051906001600160401b03821162000198575b6020906200014a601f8401601f19168301620000df565b93838552828483010111620000c35782906000905b838383106200017f575050116200017557505090565b6000918301015290565b819350828193920101518282880101520183916200015f565b620001a2620000c8565b62000133565b51906001600160a01b0382168203620000c357565b80519293929091906001600160401b038111620002d1575b620001ed81620001e7600354620002e1565b6200031e565b602080601f83116001146200023c57508190620002289460009262000230575b50508160011b916000199060031b1c191617600355620003d0565b60805260a052565b0151905038806200020d565b60036000529293919291601f1984167fc2575a0e9e593c00f959f8c92f12db2869c3395a3b0502d05e2516446f71f85b936000905b828210620002b857505091600193918562000228979694106200029e575b505050811b01600355620003d0565b015160001960f88460031b161c191690553880806200028f565b8060018697829497870151815501960194019062000271565b620002db620000c8565b620001d5565b90600182811c9216801562000313575b6020831014620002fd57565b634e487b7160e01b600052602260045260246000fd5b91607f1691620002f1565b601f81116200032b575050565b6000906003825260208220906020601f850160051c830194106200036c575b601f0160051c01915b8281106200036057505050565b81815560010162000353565b90925082906200034a565b601f811162000384575050565b6000906004825260208220906020601f850160051c83019410620003c5575b601f0160051c01915b828110620003b957505050565b818155600101620003ac565b9092508290620003a3565b80519091906001600160401b038111620004c4575b620003fd81620003f7600454620002e1565b62000377565b602080601f83116001146200043c575081929360009262000430575b50508160011b916000199060031b1c191617600455565b01519050388062000419565b6004600052601f198316949091907f8a35acfbc15ff81a39ae7d344fd709f28e8600b4aa8c65c6b64bfe7fe36bd19b926000905b878210620004ab57505083600195961062000491575b505050811b01600455565b015160001960f88460031b161c1916905538808062000486565b8060018596829496860151815501950193019062000470565b620004ce620000c8565b620003e556fe60806040526004361015610013575b600080fd5b60003560e01c806301ffc9a714610172578063033964be146100fd57806306fdde0314610169578063095ea7b31461016057806318160ddd1461015757806323b872dd1461014e578063313ce56714610145578063395093511461013c57806340c10f191461013357806370a082311461012a57806395d89b41146101215780639dc29fac14610118578063a457c2d71461010f578063a9059cbb14610106578063d6c0b2c4146100fd578063dd62ed3e146100f4578063e78cea92146100eb5763ee9a31a2146100e357600080fd5b61000e610a03565b5061000e610a03565b5061000e6109aa565b5061000e6101c9565b5061000e610983565b5061000e6108d4565b5061000e610778565b5061000e6106b4565b5061000e610679565b5061000e61052d565b5061000e6104d4565b5061000e6104b7565b5061000e6103eb565b5061000e6103cc565b5061000e61039a565b5061000e610266565b503461000e57602036600319011261000e5760043563ffffffff60e01b811680910361000e576020906301ffc9a760e01b81149081156101b8575b506040519015158152f35b63ec4fc8e360e01b149050386101ad565b503461000e57600036600319011261000e576040517f00000000000000000000000000000000000000000000000000000000000000006001600160a01b03168152602090f35b919091602080825283519081818401526000945b828610610250575050806040939411610243575b601f01601f1916010190565b6000838284010152610237565b8581018201518487016040015294810194610223565b503461000e5760008060031936011261036b5760405190806003549060019180831c92808216928315610361575b602092838610851461034d57858852602088019490811561033157506001146102d8575b6102d4876102c881890382610a49565b6040519182918261020f565b0390f35b600360005294509192917fc2575a0e9e593c00f959f8c92f12db2869c3395a3b0502d05e2516446f71f85b5b83861061032057505050910190506102c8826102d438806102b8565b805485870152948201948101610304565b60ff191685525050500191506102c89050826102d438806102b8565b634e487b7160e01b82526022600452602482fd5b93607f1693610294565b80fd5b600435906001600160a01b038216820361000e57565b602435906001600160a01b038216820361000e57565b503461000e57604036600319011261000e576103c16103b761036e565b6024359033610c58565b602060405160018152f35b503461000e57600036600319011261000e576020600254604051908152f35b503461000e57606036600319011261000e5761040561036e565b61040d610384565b6001600160a01b038216600090815260016020908152604080832033845290915290206044359190549260018401610456575b61044a9350610b56565b60405160018152602090f35b8284106104725761046d8361044a95033383610c58565b610440565b60405162461bcd60e51b815260206004820152601d60248201527f45524332303a20696e73756666696369656e7420616c6c6f77616e63650000006044820152606490fd5b503461000e57600036600319011261000e57602060405160128152f35b503461000e57604036600319011261000e576103c16104f161036e565b3360005260016020526105266024356105208360406000209060018060a01b0316600052602052604060002090565b54610a81565b9033610c58565b503461000e57604036600319011261000e5761054761036e565b6024356001600160a01b0361057f337f0000000000000000000000000000000000000000000000000000000000000000831614610d83565b821691821561063457816105df61062f926105c56105c07f0f6798a560793a54c3bcfe86a93cde1e73087d944c0ea20544137d412139688596600254610a81565b600255565b6001600160a01b0316600090815260208190526040902090565b8181540190558360007fddf252ad1be2c89b69c2b068fc378daa952ba7f163c4a11628f55a4df523b3ef6040518061061c86829190602083019252565b0390a36040519081529081906020820190565b0390a2005b60405162461bcd60e51b815260206004820152601f60248201527f45524332303a206d696e7420746f20746865207a65726f2061646472657373006044820152606490fd5b503461000e57602036600319011261000e576001600160a01b0361069b61036e565b1660005260006020526020604060002054604051908152f35b503461000e5760008060031936011261036b5760405190806004549060019180831c9280821692831561076e575b602092838610851461034d5785885260208801949081156103315750600114610715576102d4876102c881890382610a49565b600460005294509192917f8a35acfbc15ff81a39ae7d344fd709f28e8600b4aa8c65c6b64bfe7fe36bd19b5b83861061075d57505050910190506102c8826102d438806102b8565b805485870152948201948101610741565b93607f16936106e2565b503461000e57604036600319011261000e5761079261036e565b6024356001600160a01b036107ca337f0000000000000000000000000000000000000000000000000000000000000000831614610d83565b82169182156108855781816108407fcc16f5dbb4873280815c1ee09dbd06736cffcc184412cf7a71a0fdb75d397ca59461081961062f9560018060a01b03166000526000602052604060002090565b5461082682821015610de4565b039160018060a01b03166000526000602052604060002090565b5561084e8160025403600255565b6000847fddf252ad1be2c89b69c2b068fc378daa952ba7f163c4a11628f55a4df523b3ef6040518061061c86829190602083019252565b60405162461bcd60e51b815260206004820152602160248201527f45524332303a206275726e2066726f6d20746865207a65726f206164647265736044820152607360f81b6064820152608490fd5b503461000e57604036600319011261000e576108ee61036e565b6024359033600052600160205261091b8160406000209060018060a01b0316600052602052604060002090565b54918083106109305761044a92039033610c58565b60405162461bcd60e51b815260206004820152602560248201527f45524332303a2064656372656173656420616c6c6f77616e63652062656c6f77604482015264207a65726f60d81b6064820152608490fd5b503461000e57604036600319011261000e576103c16109a061036e565b6024359033610b56565b503461000e57604036600319011261000e5760206109fa6109c961036e565b6109d1610384565b6001600160a01b0391821660009081526001855260408082209290931681526020919091522090565b54604051908152f35b503461000e57600036600319011261000e576040517f00000000000000000000000000000000000000000000000000000000000000006001600160a01b03168152602090f35b90601f8019910116810190811067ffffffffffffffff821117610a6b57604052565b634e487b7160e01b600052604160045260246000fd5b81198111610a8d570190565b634e487b7160e01b600052601160045260246000fd5b15610aaa57565b60405162461bcd60e51b815260206004820152602360248201527f45524332303a207472616e7366657220746f20746865207a65726f206164647260448201526265737360e81b6064820152608490fd5b15610b0257565b60405162461bcd60e51b815260206004820152602660248201527f45524332303a207472616e7366657220616d6f756e7420657863656564732062604482015265616c616e636560d01b6064820152608490fd5b916001600160a01b038084169290918315610c0557610bea827fddf252ad1be2c89b69c2b068fc378daa952ba7f163c4a11628f55a4df523b3ef94610c00941696610ba2881515610aa3565b610bcf84610bc28360018060a01b03166000526000602052604060002090565b5461082682821015610afb565b556001600160a01b0316600090815260208190526040902090565b8054820190556040519081529081906020820190565b0390a3565b60405162461bcd60e51b815260206004820152602560248201527f45524332303a207472616e736665722066726f6d20746865207a65726f206164604482015264647265737360d81b6064820152608490fd5b6001600160a01b038082169291908315610d32578216938415610ce25780610cd17f8c5be1e5ebec7d5bd14f71427d1e84f3dd0314c0f7b2291e5b200ac8c7c3b92594610cba610c009560018060a01b03166000526001602052604060002090565b9060018060a01b0316600052602052604060002090565b556040519081529081906020820190565b60405162461bcd60e51b815260206004820152602260248201527f45524332303a20617070726f766520746f20746865207a65726f206164647265604482015261737360f01b6064820152608490fd5b60405162461bcd60e51b8152602060048201526024808201527f45524332303a20617070726f76652066726f6d20746865207a65726f206164646044820152637265737360e01b6064820152608490fd5b15610d8a57565b60405162461bcd60e51b815260206004820152602c60248201527f4d696e7461626c6545524332303a206f6e6c79206272696467652063616e206d60448201526b34b73a1030b73210313ab93760a11b6064820152608490fd5b15610deb57565b60405162461bcd60e51b815260206004820152602260248201527f45524332303a206275726e20616d6f756e7420657863656564732062616c616e604482015261636560f01b6064820152608490fdfea2646970667358221220eeef198022b604fbfb81b605dc84f40c12f200d4825421198d075652fbc1055264736f6c634300080d0033",
  "linkReferences": {},
  "deployedLinkReferences": {}
}